:020000040800F2
:1000000000C00020F90900087908000881080008EC
:1000100089080008910800089908000800000000FD
:10002000000000000000000000000000A10800081F
:10003000AD08000800000000B9080008C508000865
:10004000410A0008410A0008410A0008410A000864
:10005000410A0008410A0008410A0008410A000854
:10006000410A0008410A0008410A0008410A000844
:10007000410A0008410A0008410A0008410A000834
:10008000410A0008410A0008410A0008410A000824
:10009000410A0008410A0008410A0008410A000814
:1000A000410A0008410A0008410A0008410A000804
:1000B000410A0008410A0008410A0008410A0008F4
:1000C000410A0008410A0008410A0008410A0008E4
:1000D000410A0008410A0008410A0008410A0008D4
:1000E000410A0008410A0008410A0008410A0008C4
:1000F000410A0008410A0008410A0008410A0008B4
:10010000410A0008410A0008410A0008410A0008A3
:10011000410A0008410A0008D1080008410A000805
:10012000410A0008410A0008410A0008410A000883
:1001300000000000000000000000000000000000BF
:1001400000000000000000000000000000000000AF
:10015000000000000000000000000000000000009F
:10016000000000000000000000000000000000008F
:10017000000000000000000000000000000000007F
:10018000000000000000000000000000000000006F
:10019000000000000000000000000000000000005F
:1001A000000000000000000000000000000000004F
:1001B000000000000000000000000000000000003F
:1001C000000000000000000000000000000000002F
:1001D000000000000000000000000000000000001F
:0401E0005FF8E0F1F3
:1001E40010B5054C237833B9044B13B10448AFF36D
:1001F40000800123237010BD68000020000000006F
:100204004C33000808B5034B1BB103490348AFF353
:10021400008008BD000000006C0000204C33000882
:1002240080B584B000AFF860B9607A607B689AB238
:100234006423B968034801F079FF7B6818461037D6
:10024400BD4680BD5C01002080B582B000AF7860FF
:100254007B681B680B4A93420FD10B4B1B6801331D
:10026400094A1360084B1B68642B06D10821074810
:1002740000F026FF044B00221A6000BF0837BD4679
:1002840080BD00BF00100040A4010020000C01400C
:1002940080B500AF00F0D4FB00F03EF800F08AF91E
:1002A40000F05EF900F026F900F07CF800F0CEF8DA
:1002B4003C21134801F01FFC3C21124801F01BFCB7
:1002C4000F4B1B685B6A1AB20F4B1A800D4B1B68ED
:1002D4005B6A1AB20D4B1A800B4BB3F90030194606
:1002E4000B4802F0B9F9094BB3F900305B421946E7
:1002F400084802F0B1F9642000F004FC00BFDFE715
:1003040084000020CC000020A8010020AA010020C5
:10031400643300087C33000880B590B000AF07F167
:10032400180328220021184602F0EBF93B1D002295
:100334001A605A609A60DA601A610123BB614FF453
:100344008033FB6100233B620123BB6202237B6396
:100354004FF48033BB634FF4E013FB6307F11803DE
:10036400184600F0C7FE0346002B01D000F06CF9DC
:100374000F237B600223BB600023FB604FF4806388
:100384003B6100237B613B1D0221184601F034F9D7
:100394000346002B01D000F057F900BF4037BD469B
:1003A40080BD000080B58CB000AF07F10C0324229F
:1003B4000021184602F0A5F93B1D00221A605A607C
:1003C400204B214A1A601F4B00225A601D4B002209
:1003D4009A601C4B4FF6FF72DA601A4B00221A61C6
:1003E400184B00229A610323FB6000233B61012325
:1003F4007B610023BB610A23FB6100233B62012371
:100404007B620023BB620A23FB6207F10C031946DB
:100414000C4801F0CEFA0346002B01D000F014F989
:1004240000237B600023BB603B1D1946054801F097
:10043400AFFD0346002B01D000F006F900BF3037B2
:10044400BD4680BD840000200004004080B58CB00F
:1004540000AF07F10C0324220021184602F051F9E1
:100464003B1D00221A605A60204B214A1A601F4B20
:1004740000225A601D4B00229A601C4B4FF6FF72FB
:10048400DA601A4B00221A61184B00229A61032386
:10049400FB6000233B6101237B610023BB610A23D2
:1004A400FB6100233B6201237B620023BB620A23BE
:1004B400FB6207F10C0319460C4801F07AFA034673
:1004C400002B01D000F0C0F800237B600023BB6048
:1004D4003B1D1946054801F05BFD0346002B01D086
:1004E40000F0B2F800BF3037BD4680BDCC0000201C
:1004F4000008004080B582B000AF3B4600221A607D
:100504005A60154B154A1A60134B41F61F425A6044
:10051400114B00229A60104B6322DA600E4B0022CA
:100524009A610D4801F0F6F90346002B01D000F062
:100534008BF800233B6000237B603B46194606484A
:1005440001F026FD0346002B01D000F07DF800BF2A
:100554000837BD4680BD00BF1401002000100040D4
:1005640080B500AF114B124A1A60104B4FF4E132C0
:100574005A600E4B00229A600C4B0022DA600B4B3F
:1005840000221A61094B0C225A61084B00229A611D
:10059400064B0022DA61054801F078FD0346002B82
:1005A40001D000F051F800BF80BD00BF5C01002005
:1005B4000038014080B588B000AF07F11003002275
:1005C4001A605A609A60DA601D4B9B691C4A43F0BA
:1005D400200393611A4B9B6903F02003FB60FB68C3
:1005E400174B9B69164A43F004039361144B9B69B0
:1005F40003F00403BB60BB68114B9B69104A43F0D2
:10060400080393610E4B9B6903F008037B607B68CE
:10061400002208210B4800F03BFD08233B61012325
:100624007B610023BB610223FB6107F110031946C0
:10063400044800F099FB00BF2037BD4680BD00BFD1
:1006440000100240000C014080B400AF72B600BF3D
:1006540000BFFDE780B485B000AF154B9B69144A19
:1006640043F001039361124B9B6903F00103BB60E8
:10067400BB680F4BDB690E4A43F08053D3610C4BCC
:10068400DB6903F080537B607B680A4B5B68FB602B
:10069400FB6823F0E063FB60FB6843F00073FB60DE
:1006A400044AFB68536000BF1437BD4680BC7047E2
:1006B400001002400000014080B58AB000AF7860AD
:1006C40007F1180300221A605A609A60DA607B68A6
:1006D4001B682A4A934224D1294BDB69284A43F0F8
:1006E4000203D361264BDB6903F002037B617B6960
:1006F400234B9B69224A43F004039361204B9B697B
:1007040003F004033B613B69C023BB610023FB612D
:1007140000233B6207F1180319461A4800F024FB32
:1007240028E07B681B68184A934223D1144BDB6989
:10073400134A43F00403D361114BDB6903F0040350
:10074400FB60FB680E4B9B690D4A43F00803936101
:100754000B4B9B6903F00803BB60BB68C023BB6100
:100764000023FB6100233B6207F118031946074885
:1007740000F0FAFA00BF2837BD4680BD00040040EF
:10078400001002400008014000080040000C014035
:1007940080B584B000AF78607B681B680D4A9342D3
:1007A40013D10D4BDB690C4A43F01003D3610A4BA0
:1007B400DB6903F01003FB60FB6800220021362094
:1007C40000F09BFA362000F0B4FA00BF1037BD46A3
:1007D40080BD00BF001000400010024080B588B00A
:1007E40000AF786007F1100300221A605A609A6023
:1007F400DA607B681B681C4A934231D11B4B9B69AE
:100804001A4A43F480439361184B9B6903F4804371
:10081400FB60FB68154B9B69144A43F00403936126
:10082400124B9B6903F00403BB60BB684FF4007375
:100834003B6102237B610323FB6107F1100319462B
:100844000B4800F091FA4FF480633B6100237B6115
:100854000023BB6107F110031946054800F084FA30
:1008640000BF2037BD4680BD003801400010024063
:100874000008014080B400AF00BFFDE780B400AFC2
:1008840000BFFDE780B400AF00BFFDE780B400AF58
:1008940000BFFDE780B400AF00BFFDE780B400AF48
:1008A40000BFBD4680BC704780B400AF00BFBD46EA
:1008B40080BC704780B400AF00BFBD4680BC7047A9
:1008C40080B500AF00F002F900BF80BD80B500AF75
:1008D400024801F09EF900BF80BD00BF1401002052
:1008E40080B586B000AFF860B9607A6000237B61A0
:1008F4000AE0AFF300800146BB685A1CBA60CAB272
:100904001A707B6901337B617A697B689A42F0DBF8
:100914007B6818461837BD4680BD80B483B000AFED
:1009240078604FF0FF3318460C37BD4680BC7047E3
:1009340080B483B000AF786039603B684FF40052F4
:100944005A60002318460C37BD4680BC704780B4FB
:1009540083B000AF7860012318460C37BD4680BCD5
:10096400704780B485B000AFF860B9607A60002346
:1009740018461437BD4680BC7047000080B586B069
:1009840000AF7860144A154BD31A7B617B693B61D5
:10099400134B1B68002B02D1114B124A1A60104BE7
:1009A4001A687B6813443A699A4207D201F0F8FE48
:1009B40003460C221A604FF0FF3309E0084B1B6812
:1009C400FB60074B1A687B681344054A1360FB6895
:1009D40018461837BD4680BD00C000200004000042
:1009E400AC0100200003002080B400AF00BFBD466E
:1009F40080BC7047FFF7F8FF0B480C490C4A0023F2
:100A040002E0D458C4500433C4188C42F9D3094AC0
:100A1400094C002301E013600432A242FBD301F02D
:100A2400C5FEFFF735FC7047000000206800002079
:100A3400003400086800002000030020FEE70000E6
:100A440080B500AF084B1B68074A43F010031360DE
:100A5400032000F047F90F2000F008F8FFF7FAFD33
:100A64000023184680BD00BF0020024080B582B03C
:100A740000AF7860124B1A68124B1B7819464FF47A
:100A84007A73B3FBF1F3B2FBF3F3184600F05FF9AA
:100A94000346002B01D001230EE07B680F2B0AD8FC
:100AA400002279684FF0FF3000F027F9064A7B688E
:100AB4001360002300E0012318460837BD4680BDBB
:100AC40000000020080000200400002080B400AFD3
:100AD400054B1B781A46054B1B681344034A1360E5
:100AE40000BFBD4680BC704708000020B001002054
:100AF40080B400AF024B1B681846BD4680BC7047EB
:100B0400B001002080B584B000AF7860FFF7F0FF3B
:100B1400B8607B68FB60FB68B3F1FF3F05D00A4B0C
:100B24001B781A46FB681344FB6000BFFFF7E0FF25
:100B34000246BB68D31AFA689A42F7D800BF00BFCE
:100B44001037BD4680BD00BF0800002080B485B0CA
:100B540000AF78607B6803F00703FB600C4BDB6835
:100B6400BB60BA684FF6FF031340BB60FB681A0210
:100B7400BB68134343F0BF6343F40033BB60044AD0
:100B8400BB68D36000BF1437BD4680BC704700BF4C
:100B940000ED00E080B400AF044BDB681B0A03F0F7
:100BA40007031846BD4680BC704700BF00ED00E057
:100BB40080B483B000AF0346FB7197F90730002B74
:100BC4000BDBFB7903F01F02064997F907305B0939
:100BD400012000FA02F241F8232000BF0C37BD4681
:100BE40080BC704700E100E080B483B000AF0346EE
:100BF4003960FB7197F90730002B0ADB3B68DAB2E6
:100C04000C4997F907301201D2B20B4483F8002340
:100C14000AE03B68DAB20849FB7903F00F03043BAE
:100C24001201D2B20B441A7600BF0C37BD4680BC09
:100C3400704700BF00E100E000ED00E080B489B03F
:100C440000AFF860B9607A60FB6803F00703FB61EA
:100C5400FB69C3F10703042B28BF0423BB61FB69B1
:100C64000433062B02D9FB69033B00E000237B61BC
:100C74004FF0FF32BB6902FA03F3DA43BB681A4050
:100C84007B699A404FF0FF317B6901FA03F3D94342
:100C94007B680B40134318462437BD4680BC70471D
:100CA40080B582B000AF78607B68013BB3F1807F90
:100CB40001D301230FE00A4A7B68013B53600F21F3
:100CC4004FF0FF30FFF790FF054B00229A60044B72
:100CD40007221A60002318460837BD4680BD00BFAE
:100CE40010E000E080B582B000AF78607868FFF76C
:100CF4002DFF00BF0837BD4680BD80B586B000AF6C
:100D04000346B9607A60FB7300237B61FFF742FFFF
:100D140078617A68B9687869FFF790FF024697F9B5
:100D24000F3011461846FFF75FFF00BF1837BD4666
:100D340080BD80B582B000AF0346FB7197F90730E0
:100D44001846FFF735FF00BF0837BD4680BD80B5A4
:100D540082B000AF78607868FFF7A2FF03461846B8
:100D64000837BD4680BD000080B48BB000AF78600A
:100D7400396000237B6200233B6279E101227B6AB4
:100D840002FA03F3FB613B681B68FA691340BB6119
:100D9400BA69FB699A4240F068813B685B68964A8D
:100DA40093425ED0944A934275D8944A934258D061
:100DB400924A93426FD8924A934252D0904A9342B5
:100DC40069D8904A93424CD08E4A934263D88E4A53
:100DD400934246D08C4A93425DD8122B2AD8122BC8
:100DE40059D801A252F823F0670E0008410E0008FA
:100DF400530E0008950E00089B0E00089B0E000879
:100E04009B0E00089B0E00089B0E00089B0E00081A
:100E14009B0E00089B0E00089B0E00089B0E00080A
:100E24009B0E00089B0E00089B0E0008490E00084C
:100E34005D0E0008754A934213D02CE03B68DB68D2
:100E44003B6229E03B68DB6804333B6224E03B6897
:100E5400DB6808333B621FE03B68DB680C333B62B2
:100E64001AE03B689B68002B02D104233B6213E029
:100E74003B689B68012B05D108233B627B68FA69B8
:100E84001A6109E008233B627B68FA695A6103E04E
:100E940000233B6200E000BFBB69FF2B01D87B68E5
:100EA40001E07B6804337B61BB69FF2B02D87B6A5A
:100EB4009B0002E07B6A083B9B003B617B691A68EC
:100EC4000F213B6901FA03F3DB431A40396A3B699A
:100ED40001FA03F31A437B691A603B685B6803F009
:100EE4008053002B00F0C180494B9B69484A43F072
:100EF40001039361464B9B6903F00103BB60BB682C
:100F0400444A7B6A9B08023352F82330FB607B6AB5
:100F140003F003039B000F2202FA03F3DB43FA6896
:100F24001340FB607B683C4A93421FD07B683B4A7A
:100F3400934219D07B683A4A934213D07B68394A6A
:100F440093420DD07B68384A934207D07B68374A76
:100F5400934201D105230AE0062308E0042306E0B6
:100F6400032304E0022302E0012300E000237A6A61
:100F740002F0030292009340FA681343FB60254990
:100F84007B6A9B080233FA6841F823203B685B685C
:100F940003F48013002B06D0254B9A682449BB69BF
:100FA40013438B6006E0224B9A68BB69DB432049FC
:100FB40013408B603B685B6803F40013002B06D07E
:100FC4001B4BDA681A49BB691343CB6006E0184B24
:100FD400DA68BB69DB4316491340CB603B685B6846
:100FE40003F40033002B25D0114B5A681049BB6918
:100FF40013434B6025E000BF0000321000003110A5
:101004000000221000002110000012100000111036
:10101400001002400000014000080140000C0140A3
:10102400001001400014014000180140001C014060
:1010340000040140154B5A68BB69DB431349134054
:101044004B603B685B6803F48033002B06D00F4B86
:101054001A680E49BB6913430B6006E00B4B1A6810
:10106400BB69DB43094913400B607B6A01337B6234
:101074003B681A687B6A22FA03F3002B7FF47EAE86
:1010840000BF00BF2C37BD4680BC70470004014040
:1010940080B483B000AF78600B467B8013467B70CE
:1010A4007B78002B03D07A887B681A6103E07B8805
:1010B4001A047B681A6100BF0C37BD4680BC7047B8
:1010C40080B485B000AF78600B467B807B68DB68BA
:1010D400FB607A88FB6813401A04FB68D9437B8859
:1010E4000B401A437B681A6100BF1437BD4680BCAD
:1010F4007047000080B586B000AF78607B68002B35
:1011040001D1012372E27B681B6803F00103002B09
:1011140000F08780924B5B6803F00C03042B0CD027
:101124008F4B5B6803F00C03082B12D18C4B5B686C
:1011340003F48033B3F5803F0BD1894B1B6803F470
:101144000033002B6CD07B685B68002B68D10123D3
:101154004CE27B685B68B3F5803F06D1804B1B682B
:101164007F4A43F4803313602EE07B685B68002B76
:101174000CD17B4B1B687A4A23F480331360784B81
:101184001B68774A23F4802313601DE07B685B6847
:10119400B3F5A02F0CD1724B1B68714A43F4802322
:1011A40013606F4B1B686E4A43F4803313600BE08B
:1011B4006B4B1B686A4A23F480331360684B1B68CB
:1011C400674A23F4802313607B685B68002B13D089
:1011D400FFF78EFC386108E0FFF78AFC02463B69A2
:1011E400D31A642B01D9032300E25D4B1B6803F47B
:1011F4000033002BF0D014E0FFF77AFC386108E0EC
:10120400FFF776FC02463B69D31A642B01D903230A
:10121400ECE1534B1B6803F40033002BF0D100E0E6
:1012240000BF7B681B6803F00203002B63D04C4BA8
:101234005B6803F00C03002B0BD0494B5B6803F095
:101244000C03082B1CD1464B5B6803F48033002B42
:1012540016D1434B1B6803F00203002B05D07B68B7
:101264001B69012B01D00123C0E13D4B1B6823F016
:10127400F8027B685B69DB00394913430B603AE091
:101284007B681B69002B20D0364B01221A60FFF7C4
:101294002FFC386108E0FFF72BFC02463B69D31AA8
:1012A400022B01D90323A1E12D4B1B6803F0020398
:1012B400002BF0D02A4B1B6823F0F8027B685B6993
:1012C400DB00274913430B6015E0264B00221A600C
:1012D400FFF70EFC386108E0FFF70AFC02463B69A1
:1012E400D31A022B01D9032380E11D4B1B6803F0A1
:1012F4000203002BF0D17B681B6803F00803002B6A
:101304003AD07B689B69002B19D0174B01221A60D5
:10131400FFF7EEFB386108E0FFF7EAFB02463B69A2
:10132400D31A022B01D9032360E10D4B5B6A03F04E
:101334000203002BF0D0012000F0CEFA1CE00A4B8F
:1013440000221A60FFF7D4FB38610FE0FFF7D0FBEF
:1013540002463B69D31A022B08D9032346E100BF96
:10136400001002400000424280044242924B5B6AF9
:1013740003F00203002BE9D17B681B6803F004032C
:10138400002B00F0A6800023FB758B4BDB6903F078
:101394008053002B0DD1884BDB69874A43F080537F
:1013A400D361854BDB6903F08053BB60BB680123C9
:1013B400FB75824B1B6803F48073002B18D17F4BA1
:1013C4001B687E4A43F480731360FFF791FB386116
:1013D40008E0FFF78DFB02463B69D31A642B01D961
:1013E400032303E1754B1B6803F48073002BF0D0D7
:1013F4007B68DB68012B06D16F4B1B6A6E4A43F096
:10140400010313622DE07B68DB68002B0CD16A4B6F
:101414001B6A694A23F001031362674B1B6A664A1D
:1014240023F0040313621CE07B68DB68052B0CD1FA
:10143400614B1B6A604A43F0040313625E4B1B6AF0
:101444005D4A43F0010313620BE05B4B1B6A5A4A8B
:1014540023F001031362584B1B6A574A23F0040319
:1014640013627B68DB68002B15D0FFF741FB386102
:101474000AE0FFF73DFB02463B69D31A41F288328A
:10148400934201D90323B1E04B4B1B6A03F00203DF
:10149400002BEED014E0FFF72BFB38610AE0FFF7D6
:1014A40027FB02463B69D31A41F28832934201D9A1
:1014B40003239BE0404B1B6A03F00203002BEED195
:1014C400FB7D012B05D13C4BDB693B4A23F0805368
:1014D400D3617B68DB69002B00F08780364B5B6847
:1014E40003F00C03082B61D07B68DB69022B46D127
:1014F400334B00221A60FFF7FBFA386108E0FFF76C
:10150400F7FA02463B69D31A022B01D903236DE093
:10151400294B1B6803F00073002BF0D17B681B6A16
:10152400B3F5803F08D1244B5B6823F400327B6819
:101534009B68214913434B601F4B5B6823F474126F
:101544007B68196A7B685B6A0B431B4913434B60D6
:101554001B4B01221A60FFF7CBFA386108E0FFF752
:10156400C7FA02463B69D31A022B01D903233DE093
:10157400114B1B6803F00073002BF0D035E0104BC7
:1015840000221A60FFF7B4FA386108E0FFF7B0FAF6
:1015940002463B69D31A022B01D9032326E0064BEA
:1015A4001B6803F00073002BF0D11EE07B68DB693D
:1015B400012B07D1012319E0001002400070004004
:1015C400600042420B4B5B68FB60FB6803F48032B3
:1015D4007B681B6A9A4206D1FB6803F470127B682D
:1015E4005B6A9A4201D0012300E0002318461837B1
:1015F400BD4680BD0010024080B584B000AF786065
:1016040039607B68002B01D10123D0E06A4B1B6851
:1016140003F007033A689A4210D9674B1B6823F01A
:10162400070265493B6813430B60634B1B6803F077
:1016340007033A689A4201D00123B8E07B681B682B
:1016440003F00203002B20D07B681B6803F0040323
:10165400002B05D0594B5B68584A43F4E063536050
:101664007B681B6803F00803002B05D0534B5B68B1
:10167400524A43F460535360504B5B6823F0F002CA
:101684007B689B684D4913434B607B681B6803F080
:101694000103002B40D07B685B68012B07D1474BCB
:1016A4001B6803F40033002B15D101237FE07B6812
:1016B4005B68022B07D1414B1B6803F00073002BBE
:1016C40009D1012373E03D4B1B6803F00203002B97
:1016D40001D101236BE0394B5B6823F003027B6883
:1016E4005B68364913434B60FFF702FAF8600AE07F
:1016F400FFF7FEF90246FB68D31A41F2883293429F
:1017040001D9032353E02D4B5B6803F00C027B6883
:101714005B689B009A42EBD1274B1B6803F00703DD
:101724003A689A4210D2244B1B6823F007022249DC
:101734003B6813430B60204B1B6803F007033A68B4
:101744009A4201D0012332E07B681B6803F0040352
:10175400002B08D0194B5B6823F4E0627B68DB68DC
:10176400164913434B607B681B6803F00803002B86
:1017740009D0124B5B6823F460527B681B69DB0061
:101784000E4913434B6000F021F802460B4B5B6893
:101794001B0903F00F030A49CB5C22FA03F3094A3D
:1017A4001360094B1B681846FFF760F900231846BD
:1017B4001037BD4680BD00BF00200240001002402B
:1017C40098330008000000200400002080B487B093
:1017D40000AF0023FB600023BB6000237B61002378
:1017E4007B6000233B611E4B5B68FB60FB6803F07E
:1017F4000C03042B02D0082B03D027E0194B3B61C8
:1018040027E0FB689B0C03F00F03174AD35C7B6053
:10181400FB6803F48033002B10D0114B5B685B0C26
:1018240003F00103114AD35CBB607B680D4A03FBE0
:1018340002F2BB68B2FBF3F37B6104E07B680C4A01
:1018440002FB03F37B617B693B6102E0054B3B6177
:1018540000BF3B6918461C37BD4680BC704700BFBB
:101864000010024000127A00B0330008C0330008B0
:1018740000093D0080B400AF024B1B681846BD460A
:1018840080BC70470000002080B500AFFFF7F2FF76
:101894000246054B5B681B0A03F007030349CB5C54
:1018A40022FA03F3184680BD00100240A833000852
:1018B40080B500AFFFF7DEFF0246054B5B68DB0A2D
:1018C40003F007030349CB5C22FA03F3184680BDF7
:1018D40000100240A833000880B485B000AF7860DF
:1018E4000A4B1B680A4AA2FB03235B0A7A6802FBC1
:1018F40003F3FB6000BFFB685A1EFA60002BF9D1AA
:1019040000BF00BF1437BD4680BC704700000020F4
:10191400D34D621080B582B000AF78607B68002B35
:1019240001D1012341E07B6893F83D30DBB2002B09
:1019340006D17B68002283F83C207868FEF728FFF4
:101944007B68022283F83D207B681A687B68043335
:101954001946104600F072FA7B68012283F846208B
:101964007B68012283F83E207B68012283F83F20B4
:101974007B68012283F840207B68012283F84120A0
:101984007B68012283F842207B68012283F843208C
:101994007B68012283F844207B68012283F8452078
:1019A4007B68012283F83D20002318460837BD4692
:1019B40080BD80B586B000AF786039607B68002B4D
:1019C40001D1012393E07B6893F83D30DBB2002B17
:1019D40006D17B68002283F83C207868FEF76CFE11
:1019E4007B68022283F83D207B681B689B687A68C9
:1019F400126823F4804323F0070393607B681A681A
:101A04007B6804331946104600F018FA7B681B689B
:101A14009B687B617B681B689B693B617B681B6877
:101A24001B6AFB603B681B687A6913437B613B69F3
:101A340023F4407323F003033B613B689A683B68DB
:101A44009B691B0213433A6913433B613B6923F4CB
:101A5400406323F00C033B613B6923F4704323F0A0
:101A6400F0033B613B68DA683B68DB691B021343A4
:101A74003A6913433B613B681B691A013B681B6A63
:101A84001B0313433A6913433B61FB6823F02203AE
:101A9400FB603B685A683B685B691B011343FA6847
:101AA4001343FB607B681B687A699A607B681B68D8
:101AB4003A699A617B681B68FA681A627B6801223A
:101AC40083F846207B68012283F83E207B6801224C
:101AD40083F83F207B68012283F842207B6801223F
:101AE40083F843207B68012283F83D2000231846B5
:101AF4001837BD4680BD80B584B000AF78603960CA
:101B04007B6893F83E30FB737B6893F83F30BB737C
:101B14007B6893F842307B737B6893F843303B7364
:101B24003B68002B10D1FB7B012B02D17B7B012B6B
:101B340001D0012369E07B68022283F83E207B68A0
:101B4400022283F8422031E03B68042B10D1BB7B96
:101B5400012B02D13B7B012B01D0012355E07B6893
:101B6400022283F83F207B68022283F843201DE091
:101B7400FB7B012B08D1BB7B012B05D17B7B012B8C
:101B840002D13B7B012B01D001233EE07B68022282
:101B940083F83E207B68022283F83F207B68022280
:101BA40083F842207B68022283F843203B68002BA1
:101BB40003D03B68042B08D00FE07B681B6801222C
:101BC4000021184600F0C0F916E07B681B6801226A
:101BD4000421184600F0B8F90EE07B681B68012266
:101BE4000021184600F0B0F97B681B68012204212B
:101BF400184600F0A9F900BF7B681B681A687B6867
:101C04001B6842F001021A60002318461037BD46D3
:101C140080BD80B584B000AF78607B681B68DB68EA
:101C2400FB607B681B681B69BB60BB6803F0020335
:101C3400002B20D0FB6803F00203002B1BD07B6831
:101C44001B686FF002021A617B6801221A777B68B5
:101C54001B689B6903F00303002B03D0786800F032
:101C6400D1F805E0786800F0C4F8786800F0D3F89B
:101C74007B6800221A77BB6803F00403002B20D092
:101C8400FB6803F00403002B1BD07B681B686FF018
:101C940004021A617B6802221A777B681B689B69BD
:101CA40003F44073002B03D0786800F0ABF805E030
:101CB400786800F09EF8786800F0ADF87B68002240
:101CC4001A77BB6803F00803002B20D0FB6803F0ED
:101CD4000803002B1BD07B681B686FF008021A6195
:101CE4007B6804221A777B681B68DB6903F00303B3
:101CF400002B03D0786800F085F805E0786800F0E0
:101D040078F8786800F087F87B6800221A77BB6857
:101D140003F01003002B20D0FB6803F01003002B0A
:101D24001BD07B681B686FF010021A617B68082265
:101D34001A777B681B68DB6903F44073002B03D0BC
:101D4400786800F05FF805E0786800F052F8786889
:101D540000F061F87B6800221A77BB6803F0010386
:101D6400002B0CD0FB6803F00103002B07D07B6829
:101D74001B686FF001021A617868FEF765FABB68A8
:101D840003F08003002B0CD0FB6803F08003002BCE
:101D940007D07B681B686FF080021A61786800F0D6
:101DA4006CF9BB6803F04003002B0CD0FB6803F014
:101DB4004003002B07D07B681B686FF040021A6158
:101DC400786800F031F8BB6803F02003002B0CD0D6
:101DD400FB6803F02003002B07D07B681B686FF0BF
:101DE40020021A61786800F03FF900BF1037BD4641
:101DF40080BD80B483B000AF786000BF0C37BD46AF
:101E040080BC704780B483B000AF786000BF0C37EB
:101E1400BD4680BC704780B483B000AF786000BF1B
:101E24000C37BD4680BC704780B483B000AF786087
:101E340000BF0C37BD4680BC7047000080B485B03D
:101E440000AF786039607B681B68FB607B68394A47
:101E5400934213D07B68384A93420FD07B68B3F126
:101E6400804F0BD07B68354A934207D07B68344A55
:101E7400934203D07B68334A934208D1FB6823F032
:101E84007003FB603B685B68FA681343FB607B6824
:101E9400284A934213D07B68274A93420FD07B6829
:101EA400B3F1804F0BD07B68244A934207D07B6800
:101EB400234A934203D07B68224A934208D1FB68A9
:101EC40023F44073FB603B68DB68FA681343FB60F0
:101ED400FB6823F080023B685B691343FB607B680B
:101EE400FA681A603B689A687B68DA623B681A6829
:101EF4007B689A627B680F4A934203D07B680E4AE0
:101F0400934203D13B681A697B681A637B68012298
:101F14005A617B681B6903F00103002B05D07B68C1
:101F24001B6923F001027B681A6100BF1437BD46A8
:101F340080BC7047002C0140003401400004004084
:101F440000080040000C004080B487B000AFF86087
:101F5400B9607A60BB6803F01F03012202FA03F33D
:101F64007B61FB681A6A7B69DB431A40FB681A626F
:101F7400FB681A6ABB6803F01F03796801FA03F36C
:101F84001A43FB681A6200BF1C37BD4680BC704709
:101F940080B485B000AF786039607B6893F83C30DA
:101FA400012B01D1022350E07B68012283F83C20FD
:101FB4007B68022283F83D207B681B685B68FB60BA
:101FC4007B681B689B68BB60FB6823F07003FB6045
:101FD4003B681B68FA681343FB607B681B68FA68FC
:101FE4005A607B681B681B4A934218D07B681B6845
:101FF400194A934213D07B681B68B3F1804F0ED00B
:102004007B681B68154A934209D07B681B68144A95
:10201400934204D07B681B68124A93420CD1BB687C
:1020240023F08003BB603B685B68BA681343BB6002
:102034007B681B68BA689A607B68012283F83D203C
:102044007B68002283F83C20002318461437BD46E1
:1020540080BC7047002C0140003401400004004063
:1020640000080040000C004080B483B000AF7860EA
:1020740000BF0C37BD4680BC704780B483B000AF4E
:10208400786000BF0C37BD4680BC704780B582B015
:1020940000AF78607B68002B01D1012342E07B68AC
:1020A40093F84130DBB2002B06D17B68002283F821
:1020B40040207868FEF792FB7B68242283F8412055
:1020C4007B681B68DA687B681B6822F40052DA605C
:1020D400786800F071F97B681B681A697B681B6873
:1020E40022F490421A617B681B685A697B681B68FA
:1020F40022F02A025A617B681B68DA687B681B68D5
:1021040042F40052DA607B6800225A647B68202221
:1021140083F841207B68202283F842207B680022D8
:102124005A63002318460837BD4680BD80B58AB07F
:1021340002AFF860B9603B601346FB8000237B610B
:10214400FB6893F84130DBB2202B75D1BB68002BC0
:1021540002D0FB88002B01D101236EE0FB68002232
:102164005A64FB68212283F84120FEF7C1FC7861A0
:10217400FB68FA889A84FB68FA88DA84FB689B68AF
:10218400B3F5805F08D1FB681B69002B04D10023E1
:10219400FB61BB68BB6103E0BB68FB610023BB61FF
:1021A4002EE03B6800937B6900228021F86800F0F0
:1021B40048F80346002B05D0FB68202283F8412011
:1021C40003233AE0FB69002B0BD1BB691B881A4639
:1021D400FB681B68C2F308025A60BB690233BB6127
:1021E40007E0FB691A78FB681B685A60FB690133D6
:1021F400FB61FB68DB8C9BB2013B9AB2FB68DA841F
:10220400FB68DB8C9BB2002BCBD13B6800937B69D2
:1022140000224021F86800F014F80346002B05D092
:10222400FB68202283F84120032306E0FB68202278
:1022340083F84120002300E0022318462037BD46DE
:1022440080BD80B586B000AFF860B9603B601346CE
:10225400FB713BE03B6AB3F1FF3F37D0FEF748FC2C
:1022640002463B68D31A3A6A9A4202D33B6A002B6D
:1022740001D103233AE0FB681B68DB6803F0040325
:10228400002B23D0BB68802B20D0BB68402B1DD0F3
:10229400FB681B681B6803F00803082B16D1002396
:1022A4007B61FB681B681B687B61FB681B685B6860
:1022B4007B617B69F86800F01DF8FB6808225A64AA
:1022C400FB68002283F8402001230FE0FB681B68B1
:1022D4001A68BB681340BA689A420CBF01230023F2
:1022E400DBB21A46FB799A42B4D000231846183759
:1022F400BD4680BD80B495B000AF78607B681B6834
:102304000C337B637B6B53E8003F3B633B6B23F4F1
:102314009073FB647B681B680C33FA6C3A64FB6350
:10232400F96B3A6C41E80023BB63BB6B002BE5D12E
:102334007B681B6814333B623B6A53E8003FFB61D4
:10234400FB6923F00103BB647B681B681433BA6C1C
:10235400FA62BB62B96AFA6A41E800237B627B6A6B
:10236400002BE5D17B681B6B012B19D17B681B68A3
:102374000C33FB60FB6853E8003FBB60BB6823F091
:1023840010037B647B681B680C337A6CBA617B61D5
:102394007969BA6941E800233B613B69002BE5D1C7
:1023A4007B68202283F842207B6800221A6300BFE6
:1023B4005437BD4680BC704780B584B000AF7860A8
:1023C4007B681B681B6923F440517B68DA687B686F
:1023D4001B680A431A617B689A687B681B691A4305
:1023E4007B685B691343BB607B681B68DB6823F411
:1023F400B05323F00C037A681268B9680B43D360B6
:102404007B681B685B6923F440717B689A697B680D
:102414001B680A435A617B681B682C4A934203D1A8
:10242400FFF746FAF86002E0FFF72EFAF860FA6860
:1024340013469B0013449A001A447B685B689B0014
:10244400B2FBF3F3224AA2FB03235B091901FA68E6
:1024540013469B0013449A001A447B685B689B00F4
:10246400B2FBF3F21A4BA3FB02035B09642000FBEB
:1024740003F3D31A1B013233154AA2FB03235B096E
:1024840003F0F0031944FA6813469B0013449A00BE
:102494001A447B685B689B00B2FBF3F20C4BA3FB12
:1024A40002035B09642000FB03F3D31A1B013233DC
:1024B400074AA2FB03235B0903F00F027B681B6836
:1024C4000A449A6000BF1037BD4680BD0038014001
:1024D4001F85EB51002310B50446C0E90033C0E961
:1024E4000433836081814366C28183611946082273
:1024F4005C3000F006F90D4B246263620C4BA3625E
:102504000C4BE3620C4B23630C4B9C4206D003F14F
:102514006802944202D0D0339C4205D104F15800A1
:10252400BDE8104000F066B910BD00BF8126000868
:10253400A3260008DB260008FF260008B4010020BB
:10254400024A0349034800F069B800BF0C000020A8
:10255400913000081C00002041680C4B10B59942D2
:10256400044601D000F092FDA168094B994202D0C3
:10257400204600F08BFDE168064B994204D02046CA
:10258400BDE8104000F082BD10BD00BFB4010020C2
:102594001C0200208402002010B50B4B0B4C0C4A8B
:1025A40020461A6004210022FFF794FF04F168001A
:1025B40001220921FFF78EFF04F1D0000222BDE8B9
:1025C40010401221FFF786BFEC020020B401002066
:1025D40045250008014800F00EB900BFF5020020AF
:1025E400014800F009B900BFF502002010B5044607
:1025F400FFF7F0FF236A1BB1BDE81040FFF7F0BFFF
:10260400044B2362044B1B68002BF5D1FFF7C4FF76
:10261400F2E700BF5D250008EC0200202DE9F84335
:102624000746884614460026D4E90195B9F1010904
:1026340005D52468002CF7D13046BDE8F883AB8972
:10264400012B07D9B5F90E30013303D0294638469A
:10265400C04706436835E9E70FB407B5064904AB3C
:10266400086853F8042B8168019300F0E5F903B07E
:102674005DF804EB04B070471800002010B50C4658
:10268400B1F90E1000F068F80028ABBF636DA389A0
:102694001B1823F48053ACBF6365A38110BD2DE9DF
:1026A400F0411F468B890546DB050C46164605D5C9
:1026B40002230022B1F90E1000F03CF8A38932463F
:1026C40023F48053A38128463B46B4F90E10BDE899
:1026D400F04100F053B810B50C46B1F90E1000F0FB
:1026E40029F8431CA38915BF606523F4805343F480
:1026F4008053A38118BFA38110BDB1F90E1000F05F
:1027040009B803460244934200D1704703F8011B01
:10271400F9E7000038B50023054D044608462B6050
:10272400FEF7FBF8431C02D12B6803B1236038BDCC
:10273400F002002038B50446084611460022054D33
:102744002A601A46FEF70DF9431C02D12B6803B127
:10275400236038BDF002002038B50446084611460F
:102764000022054D2A601A46FEF7BAF8431C02D12E
:102774002B6803B1236038BDF002002038B504464D
:10278400084611460022054D2A601A46FDF748FD09
:10279400431C02D12B6803B1236038BDF002002032
:1027A400014B1868704700BF1800002070B5002660
:1027B4000C4D0D4C641BA410A64209D100F0C4FDBD
:1027C40000260A4D0A4C641BA410A64205D170BD14
:1027D40055F8043B98470136EEE755F8043B984713
:1027E4000136F2E7F8330008F8330008F83300083C
:1027F400FC330008704770477047000038B5054641
:10280400002940D051F8043C0C1F002BB8BFE41839
:1028140000F0DEF81C4A136833B96360146028467C
:10282400BDE8384000F0DAB8A34208D9206821187E
:102834008B4201BF19685B6809182160EDE71A46ED
:102844005B680BB1A342FAD911685018A0420BD1AE
:1028540020680144501883421160E0D118685B6815
:10286400084410605360DAE702D90C232B60D6E7E2
:10287400206821188B4201BF19685B680918216020
:1028840063605460CBE738BDFC02002070B50F4E86
:102894000C463168054611B900F0B4FC306021469D
:1028A400284600F0AFFC431C03D14FF0FF34204610
:1028B40070BDC41C24F00304A042F8D0211A284699
:1028C40000F0A0FC0130F2D1EFE700BFF8020020D5
:1028D4002DE9F843CD1C25F0030508350C2D38BF30
:1028E4000C25002D064601DBA94204D90C233360D4
:1028F4000020BDE8F883DFF8D48000F069F8D8F848
:1029040000301C4644BB29463046FFF7BFFF431C3A
:10291400044658D1D8F800402746002F43D1002C54
:102924004BD023683946304604EB030900F06AFCB7
:10293400814542D1216830466D1A2946FFF7A6FF2A
:1029440001303AD023682B442360D8F800305A6809
:1029540062BBC8F800700FE02268521B20D40B2A17
:1029640017D96119A342256018BF5960636808BF6D
:10297400C8F8001062514B60304600F02FF804F1A3
:102984000B00231D20F00700C21A1CBF1B1AA35002
:10299400AFE76268A3420CBFC8F800205A60EBE7B7
:1029A40023466468AEE73C467F68B6E71A465B6830
:1029B400A342FBD100235360DEE70C23304633608F
:1029C40000F00CF894E70560D6E700BFFC02002095
:1029D4000148FFF710BF00BFF40200200148FFF7D1
:1029E4000BBF00BFF4020020936810B4013B002B1E
:1029F400936007DA9469A34201DB0A2902D110BC6F
:102A040000F06CBB1368581C10601970084610BCA9
:102A14007047F8B506460F461446D518AC4201D1A6
:102A2400002007E03A46304614F8011BFFF7DCFFAC
:102A3400431CF3D1F8BD00002DE9F04F0D461446B8
:102A4400984606469DB018B1036A0BB9FFF7CEFD50
:102A54006B6ED90705D4AB899A0502D4A86DFFF72C
:102A6400CAFEAB891B0701D52B699BB929463046A1
:102A740000F072FB70B16B6EDC0704D54FF0FF30D1
:102A84001DB0BDE8F08FAB899805F7D4A86DFFF7AA
:102A9400B3FEF3E70023099320238DF82930302374
:102AA4004FF00109CDF80C80DFF8A8818DF82A30A9
:102AB40023469A4613F8012B0AB1252AF9D1BAEB19
:102AC400040B0BD05B46224629463046FFF7A1FF94
:102AD400013000F0A780099A5A4409929AF800300C
:102AE400002B00F09F8000234FF0FF32CDE9052337
:102AF4000AF1010A049307938DF853301A9354464C
:102B0400052214F8011B534800F08CFB049AD8B931
:102B1400D10644BF20238DF85330130744BF2B2321
:102B24008DF853309AF800302A2B15D054460020E3
:102B34004FF00A0C079A214611F8013B303B092B50
:102B44004BD9B0B1079214E0A0EB080309FA03F3E0
:102B54001343A2460493D2E7039B191D1B680391F8
:102B6400002BBBBF5B4242F0020207930793B8BF3E
:102B7400049223782E2B0AD163782A2B32D1039B1B
:102B840002341A1D1B68039243EAE3730593DFF8CA
:102B9400C8A003225046217800F044FB38B14022FB
:102BA400049BA0EB0A00824013430134049314F8FD
:102BB400011B062229488DF8281000F033FB002859
:102BC4003FD0274B1BBB039B073323F0070308337A
:102BD4000393099B3B4409936AE70C4601200CFBD1
:102BE4000232A8E700234FF00A0C1946013405937A
:102BF400204610F8012B303A092A03D9002BC6D0FD
:102C04000591C4E7044601230CFB0121F0E703AB63
:102C140000932A463046134B04A9AFF300800746BD
:102C2400781CD6D16B6ED90705D4AB899A0502D42A
:102C3400A86DFFF7E1FDAB895B063FF51FAF09986F
:102C44001EE703AB00932A463046064B04A900F066
:102C54007DF8E4E7C2330008C8330008CC33000829
:102C640000000000172A00082DE9F0471646984690
:102C74008A680B6907469342B8BF1346336091F8DC
:102C840043200C46DDF820900AB1013333602368F9
:102C9400990642BF336802333360256815F0060590
:102CA40006D104F1190AE36832689B1AAB422BDCA3
:102CB40094F843302268003B18BF0123920630D4B5
:102CC4004146384604F14302C847013023D0236803
:102CD400226903F00603042B14BF002533684FF068
:102CE400000608BFE56804F11A0408BFED1A54F899
:102CF400123C08BF25EAE5759342C4BF9B1AED1840
:102D0400B5421AD1002008E0012352464146384614
:102D1400C847013003D14FF0FF30BDE8F0870135DB
:102D2400C1E73020E11881F843005A1C94F845109B
:102D34002244023382F84310C2E70123224641466B
:102D44003846C8470130E6D00136D9E72DE9FF47B8
:102D54000F7E9146782F80460C469A460C9E01F1D0
:102D6400430207D8622F0AD8002F00F0D380582FCF
:102D740000F0BA8004F1420684F842703AE0A7F108
:102D84006303152BF6D801A151F823F0E92D0008AF
:102D9400FD2D0008792D0008792D0008792D0008F3
:102DA400792D0008FD2D0008792D0008792D0008E3
:102DB400792D0008792D0008FF2E0008272E000821
:102DC400B92E0008792D0008792D0008212F00085C
:102DD400792D0008272E0008792D0008792D000888
:102DE400C12E000833681A1D1B68326004F14206C4
:102DF40084F8423001239EE033682068191D316055
:102E0400060601D51D6803E04506FBD5B3F900505D
:102E1400002D03DA2D236D4284F843300A235948E8
:102E240011E021683368080653F8045B02D44906AC
:102E340048BFADB26F2F336014BF0A230823514833
:102E4400002184F843106668002EA8BF2168A6609C
:102E5400A4BF21F0040121600DB9002E4BD0164609
:102E6400B5FBF3F103FB1157C75D06F8017D2F464F
:102E7400BB420D46F4D9082B0BD12368DF0708D5D4
:102E8400236961689942DEBF302306F8013C06F1EC
:102E9400FF36921B22614B4621464046CDF800A0E6
:102EA40003AAFFF7E1FE01304AD14FF0FF3004B02E
:102EB400BDE8F087236843F0200323607827324875
:102EC40084F84570236831681F0651F8045B02D406
:102ED4005F0648BFADB23160D90744BF43F0200359
:102EE40023601DB11023ABE72648E9E7236823F0EC
:102EF40020032360F6E71646BDE733682568181DEE
:102F0400616930602E061B6801D5196002E068060D
:102F1400FBD51980002316462361BCE733680021E2
:102F24001A1D32601E686268304600F07BF908B1F1
:102F3400801B606063682361002384F84330AAE740
:102F44003246494640462369D0470130ADD0236814
:102F54009B0713D4E068039B9842B8BF1846A6E7C2
:102F64000123324649464046D04701309DD00135C1
:102F7400E36803995B1AAB42F2DCEBE7002504F14A
:102F84001906F5E7D3330008E4330008B1F90C203F
:102F9400F8B5160705460C4654D44B68002B02DCE2
:102FA4000B6C002B48DDE66A002E45D0002312F49A
:102FB40080522F68216A2B6030D0626DA389590733
:102FC40005D56368D21A636B0BB1236CD21A002344
:102FD4002846E66A216AB047431CA38906D12968BA
:102FE4001D292BD8284A0A41D60727D4002262601B
:102FF4002269D904226004D5421C01D12B6803B98B
:103004006065616B2F60B9B104F14403994202D049
:103014002846FFF7F3FB002363630DE001232846F2
:10302400B0470246501CC9D12B68002BC6D01D2BBB
:1030340001D0162B1DD12F60002021E043F0400366
:103044001BB21AE00F69002FF6D0930718BF0023B4
:103054000E6808BF4B69F61B0F608B60002EEBDD1A
:1030640033463A462846216AD4F828C0E047002867
:1030740007DCB4F90C3043F040034FF0FF30A38178
:10308400F8BD0744361AE9E7FEFFBFDF38B50B6920
:1030940005460C4613B90025284638BD18B1036A05
:1030A4000BB9FFF7A3FAB4F90C30002BF3D0626E1E
:1030B400D00704D4990502D4A06DFFF79CFB2846E1
:1030C4002146FFF763FF636E0546DA07E4D4A3895C
:1030D4009B05E1D4A06DFFF78FFBDDE7F8B50E4645
:1030E4001446054618B1036A0BB9FFF77FFAA369C2
:1030F400A360A3891A0701D5236943B92146284649
:1031040000F02AF818B14FF0FF373846F8BD2368AD
:103114002269F6B2981A63693746834205DC214670
:103124002846FFF7B3FF0028EDD1A368013BA36055
:1031340023685A1C22601E706269431C9A4204D0A0
:10314400A389DB07E1D50A2EDFD121462846FFF704
:103154009DFF0028D9D0D6E738B5294B0546186815
:103164000C4618B1036A0BB9FFF740FAB4F90C30F6
:10317400190722D4DA0607D409222A6043F040034F
:103184004FF0FF30A38133E0580712D5616B41B192
:1031940004F14403994202D02846FFF72FFB002391
:1031A4006363A38923F02403A38100236360236959
:1031B4002360A38943F00803A38123694BB9A3893E
:1031C40003F42073B3F5007F03D02146284600F0B2
:1031D4005CF8B4F90C3013F001020AD00022A260AA
:1031E40062695242A261226942B913F08000C5D1DA
:1031F40038BD990758BF6269A260F4E70020F7E779
:103204001800002038B50023054D044608462B60FD
:10321400FDF7B4FB431C02D12B6803B1236038BD16
:10322400F0020020034610B5C9B202449342184686
:1032340001D1002003E0047801338C42F6D110BDA3
:1032440070B50C46B1F90E10154600291E4696B00D
:103254000CDAA389002113F0800F14BF40234FF42C
:103264008063002031602B6016B070BD6A4600F0A8
:1032740049F80028EDDB019901F47041A1F50053F0
:10328400594259414FF48063EBE78B89F7B59D07A9
:1032940006460C4607D504F1470323602361012346
:1032A400636103B0F0BD6A4601ABFFF7C9FF009F3D
:1032B400054639463046FFF70BFB48B9B4F90C30E4
:1032C4009A05EED423F0030343F00203A381E2E75B
:1032D400A389C4E9040743F08003A381019B206010
:1032E4005BB13046B4F90E1000F01EF828B1A38982
:1032F40023F0030343F00103A381A3891D43A581A4
:10330400CFE7000038B50023064D044608461146B1
:103314002B60FDF70DFB431C02D12B6803B1236026
:1033240038BD00BFF002002038B50023054D044627
:1033340008462B60FDF70BFB431C02D12B6803B13D
:10334400236038BDF0020020F8B500BFF8BC08BC0B
:103354009E467047F8B500BFF8BC08BC9E4670474F
:103364004C65667420456E636F64657220434E54E9
:10337400203D2025640D0A00526967687420456E5B
:10338400636F64657220434E54203D2025640D0A0A
:10339400000000000000000000000000010203041F
:1033A40006070809000000000102030402030405E3
:1033B400060708090A0B0C0D0E0F10100102232D2D
:1033C400302B2000686C4C0065666745464700302A
:1033D4003132333435363738394142434445460077
:1033E4003031323334353637383961626364656677
:0433F40000000000D5
:0433F80009020008BE
:0433FC00E5010008DF
:1034000000127A001000000001000000000000001F
:1034100003000000B40100201C0000200000000098
:10342000B40100201C0200208402002000000000E3
:10343000000000000000000000000000000000008C
:10344000000000000000000000000000000000007C
:10345000000000000000000000000000000000006C
:08346000000000000000000064
:04000005080009F9ED
:00000001FF
