:020000040800F2
:1000000000C00020391C0008751A00087D1A00087D
:10001000851A00088D1A0008951A000800000000D3
:100020000000000000000000000000009D1A000811
:10003000A91A000800000000B51A0008C11A00083B
:10004000811C0008811C0008811C0008811C00081C
:10005000811C0008811C0008811C0008811C00080C
:10006000811C0008811C0008811C0008811C0008FC
:10007000811C0008811C0008811C0008811C0008EC
:10008000811C0008811C0008811C0008811C0008DC
:10009000811C0008811C0008811C0008811C0008CC
:1000A000811C0008811C0008811C0008811C0008BC
:1000B000811C0008811C0008811C0008811C0008AC
:1000C000811C0008811C0008811C0008811C00089C
:1000D000811C0008811C0008811C0008811C00088C
:1000E000811C0008811C0008811C0008811C00087C
:1000F000811C0008811C0008811C0008811C00086C
:10010000811C0008811C0008811C0008811C00085B
:10011000811C0008811C0008CD1A0008811C000801
:10012000811C0008811C0008811C0008811C00083B
:1001300000000000000000000000000000000000BF
:1001400000000000000000000000000000000000AF
:10015000000000000000000000000000000000009F
:10016000000000000000000000000000000000008F
:10017000000000000000000000000000000000007F
:10018000000000000000000000000000000000006F
:10019000000000000000000000000000000000005F
:1001A000000000000000000000000000000000004F
:1001B000000000000000000000000000000000003F
:1001C000000000000000000000000000000000002F
:1001D000000000000000000000000000000000001F
:0401E0005FF8E0F1F3
:1001E80010B5054C237833B9044B13B10448AFF369
:1001F80000800123237010BDD401002000000000FE
:10020800406B000808B5034B1BB103490348AFF323
:10021800008008BD00000000D8010020406B0008E5
:10022800034613F8012B002AFBD1181A013870472E
:1002380081F0004102E000BF83F0004330B54FEA8F
:1002480041044FEA430594EA050F08BF90EA020FFC
:100258001FBF54EA000C55EA020C7FEA645C7FEA8F
:10026800655C00F0E2804FEA5454D4EB5555B8BFB2
:100278006D420CDD2C4480EA020281EA030382EA23
:10028800000083EA010180EA020281EA0303362DB5
:1002980088BF30BD11F0004F4FEA01314FF4801C88
:1002A8004CEA113102D0404261EB410113F0004F9A
:1002B8004FEA03334CEA133302D0524263EB430351
:1002C80094EA050F00F0A780A4F10104D5F1200EEF
:1002D8000DDB02FA0EFC22FA05F2801841F100014A
:1002E80003FA0EF2801843FA05F359410EE0A5F11E
:1002F80020050EF1200E012A03FA0EFC28BF4CF04F
:10030800020C43FA05F3C01851EBE37101F0004504
:1003180007D54FF0000EDCF1000C7EEB00006EEB11
:100328000101B1F5801F1BD3B1F5001F0CD349089B
:100338005FEA30004FEA3C0C04F101044FEA4452F2
:1003480012F5800F80F09A80BCF1004F08BF5FEA79
:10035800500C50F1000041EB045141EA050130BD59
:100368005FEA4C0C404141EB0101013C28BFB1F56B
:10037800801FE9D291F0000F04BF01460020B1FAB6
:1003880081F308BF2033A3F10B03B3F120020CDA89
:100398000C3208DD02F1140CC2F10C0201FA0CF067
:1003A80021FA02F10CE002F11402D8BFC2F1200CCC
:1003B80001FA02F120FA0CFCDCBF41EA0C01904082
:1003C800E41AA2BF01EB0451294330BD6FEA0404CB
:1003D8001F3C1CDA0C340EDC04F11404C4F12002B6
:1003E80020FA04F001FA02F340EA030021FA04F3C8
:1003F80045EA030130BDC4F10C04C4F1200220FA1F
:1004080002F001FA04F340EA0300294630BD21FA5C
:1004180004F0294630BD94F0000F83F4801306BF22
:1004280081F480110134013D4EE77FEA645C18BF16
:100438007FEA655C29D094EA050F08BF90EA020FAD
:1004480005D054EA000C04BF1946104630BD91EAA5
:10045800030F1EBF0021002030BD5FEA545C05D1A8
:100468004000494128BF41F0004130BD14F58004E7
:100478003CBF01F5801130BD01F0004545F0FE415B
:1004880041F470014FF0000030BD7FEA645C1ABF90
:10049800194610467FEA655C1CBF0B46024650EAC7
:1004A800013406BF52EA033591EA030F41F40021F3
:1004B80030BD00BF90F0000F04BF0021704730B579
:1004C8004FF4806404F132044FF000054FF000014E
:1004D80050E700BF90F0000F04BF0021704730B50F
:1004E8004FF4806404F1320410F0004548BF4042E4
:1004F8004FF000013EE700BF42004FEAE2014FEA39
:1005080031014FEA02701FBF12F07F4393F07F4F13
:1005180081F06051704732F07F4208BF704793F016
:100528007F4F04BF41F40021704730B54FF4607429
:1005380001F0004521F000411CE700BF50EA01022C
:1005480008BF704730B54FF000050AE050EA0102D5
:1005580008BF704730B511F0004502D5404261EB45
:1005680041014FF4806404F132045FEA915C3FF486
:10057800D8AE4FF003025FEADC0C18BF03325FEA23
:10058800DC0C18BF033202EBDC02C2F1200300FAD4
:1005980003FC20FA02F001FA03FE40EA0E0021FAF9
:1005A80002F11444BDE600BF70B54FF0FF0C4CF4E7
:1005B800E06C1CEA11541DBF1CEA135594EA0C0F99
:1005C80095EA0C0F00F0DEF82C4481EA030621EAD4
:1005D8004C5123EA4C5350EA013518BF52EA03350F
:1005E80041F4801143F4801338D0A0FB02CE4FF0C1
:1005F8000005E1FB02E506F00042E0FB03E54FF0F1
:100608000006E1FB03569CF0000F18BF4EF0010EE8
:10061800A4F1FF04B6F5007F64F5407404D25FEAE4
:100628004E0E6D4146EB060642EAC62141EA555197
:100638004FEAC52040EA5E504FEACE2EB4F1FD0CD9
:1006480088BFBCF5E06F1ED8BEF1004F08BF5FEA57
:10065800500E50F1000041EB045170BD06F0004609
:1006680046EA010140EA020081EA0301B4EB5C04B6
:10067800C2BFD4EB0C0541EA045170BD41F48011AE
:100688004FF0000E013C00F3AB8014F1360FDEBFD3
:10069800002001F0004170BDC4F10004203C35DAAF
:1006A8000C341BDC04F11404C4F1200500FA05F332
:1006B80020FA04F001FA05F240EA020001F00042D3
:1006C80021F0004110EBD37021FA04F642EB060149
:1006D8005EEA430E08BF20EAD37070BDC4F10C0473
:1006E800C4F1200500FA04F320FA05F001FA04F237
:1006F80040EA020001F0004110EBD37041F1000123
:100708005EEA430E08BF20EAD37070BDC4F120052D
:1007180000FA05F24EEA020E20FA04F301FA05F295
:1007280043EA020321FA04F001F0004121FA04F23D
:1007380020EA020000EBD3705EEA430E08BF20EA0D
:10074800D37070BD94F0000F0FD101F00046400047
:1007580041EB010111F4801F08BF013CF7D041EAC9
:10076800060195F0000F18BF704703F000465200CD
:1007780043EB030313F4801F08BF013DF7D043EA9E
:100788000603704794EA0C0F0CEA135518BF95EA54
:100798000C0F0CD050EA410618BF52EA4306D1D1DB
:1007A80081EA030101F000414FF0000070BD50EAFA
:1007B800410606BF1046194652EA430619D094EA84
:1007C8000C0F02D150EA013613D195EA0C0F05D16E
:1007D80052EA03361CBF104619460AD181EA0301C2
:1007E80001F0004141F0FE4141F470014FF000007A
:1007F80070BD41F0FE4141F4780170BD70B54FF015
:10080800FF0C4CF4E06C1CEA11541DBF1CEA135594
:1008180094EA0C0F95EA0C0F00F0A7F8A4EB050476
:1008280081EA030E52EA03354FEA013100F088806D
:100838004FEA03334FF0805545EA131343EA126336
:100848004FEA022245EA111545EA10654FEA0026EB
:100858000EF000419D4208BF964244F1FD0404F5A4
:10086800407402D25B084FEA3202B61A65EB030500
:100878005B084FEA32024FF480104FF4002CB6EBBD
:10088800020E75EB030E22BFB61A754640EA0C003D
:100898005B084FEA3202B6EB020E75EB030E22BF7D
:1008A800B61A754640EA5C005B084FEA3202B6EBBE
:1008B800020E75EB030E22BFB61A754640EA9C007D
:1008C8005B084FEA3202B6EB020E75EB030E22BF4D
:1008D800B61A754640EADC0055EA060E18D04FEA0B
:1008E800051545EA16754FEA06164FEAC30343EAAB
:1008F80052734FEAC2025FEA1C1CC0D111F4801F78
:100908000BD141EA00014FF000004FF0004CB6E770
:1009180011F4801F04BF01430020B4F1FD0C88BF0F
:10092800BCF5E06F3FF6AFAEB5EB030C04BFB6EB1A
:10093800020C5FEA500C50F1000041EB045170BD0D
:100948000EF0004E4EEA113114EB5C04C2BFD4EB3A
:100958000C0541EA045170BD41F480114FF0000EBE
:10096800013C90E645EA060E8DE60CEA135594EA3A
:100978000C0F08BF95EA0C0F3FF43BAF94EA0C0F3D
:100988000AD150EA01347FF434AF95EA0C0F7FF4B2
:1009980025AF104619462CE795EA0C0F06D152EA06
:1009A80003353FF4FDAE1046194622E750EA4106EA
:1009B80018BF52EA43067FF4C5AE50EA41047FF4FB
:1009C8000DAF52EA43057FF4EBAE12E74FF0FF3C60
:1009D80006E000BF4FF0010C02E000BF4FF0010C31
:1009E8004DF804CD4FEA410C7FEA6C5C4FEA430CAA
:1009F80018BF7FEA6C5C1BD001B050EA410C0CBFF9
:100A080052EA430C91EA030F02BF90EA020F00205A
:100A1800704710F1000F91EA030F58BF994208BFC1
:100A280090422CBFD8176FEAE37040F0010070477E
:100A38004FEA410C7FEA6C5C02D150EA013C07D1D5
:100A48004FEA430C7FEA6C5CD6D152EA033CD3D020
:100A58005DF8040B704700BF8446104662468C461A
:100A68001946634600E000BF01B5FFF7B7FF00284D
:100A780048BF10F1000F01BD4DF808EDFFF7F4FF76
:100A88000CBF012000205DF808FB00BF4DF808ED01
:100A9800FFF7EAFF34BF012000205DF808FB00BF24
:100AA8004DF808EDFFF7E0FF94BF012000205DF846
:100AB80008FB00BF4DF808EDFFF7CEFF94BF0120FB
:100AC80000205DF808FB00BF4DF808EDFFF7C4FFF4
:100AD80034BF012000205DF808FB00BF4FEA410C3D
:100AE8007FEA6C5C02D150EA013C0AD14FEA430C20
:100AF8007FEA6C5C02D152EA033C02D14FF000005D
:100B080070474FF0010070474FEA410212F500129A
:100B180015D211D56FF47873B3EB625212D94FEA3C
:100B2800C12343F0004343EA505311F0004F23FA26
:100B380002F018BF404270474FF00000704750EA7B
:100B4800013005D111F0004008BF6FF00040704738
:100B58004FF00000704700BF80F0004002E000BF87
:100B680081F0004142001FBF5FEA410392EA030F90
:100B78007FEA226C7FEA236C6AD04FEA1262D2EBDA
:100B88001363C1BFD218414048404140B8BF5B42DF
:100B9800192B88BF704710F0004F40F4000020F078
:100BA8007F4018BF404211F0004F41F4000121F08E
:100BB8007F4118BF494292EA030F3FD0A2F10102D8
:100BC80041FA03FC10EB0C00C3F1200301FA03F116
:100BD80000F0004302D5494260EB4000B0F5000F39
:100BE80013D3B0F1807F06D340084FEA310102F1F8
:100BF8000102FE2A51D2B1F1004F40EBC25008BFAA
:100C080020F0010040EA03007047490040EB000073
:100C1800013A28BFB0F5000FEDD2B0FA80FCACF174
:100C2800080CB2EB0C0200FA0CF0AABF00EBC250A1
:100C380052421843BCBFD0401843704792F0000F8F
:100C480081F4000106BF80F400000132013BB5E7E2
:100C58004FEA41037FEA226C18BF7FEA236C21D058
:100C680092EA030F04D092F0000F08BF08467047BD
:100C780090EA010F1CBF0020704712F07F4F04D18B
:100C8800400028BF40F00040704712F100723CBF9E
:100C980000F50000704700F0004343F0FE4040F4C8
:100CA800000070477FEA226216BF08467FEA236386
:100CB8000146420206BF5FEA412390EA010F40F471
:100CC800800070474FF0000304E000BF10F00043BD
:100CD80048BF40425FEA000C08BF704743F09643A4
:100CE80001464FF000001CE050EA010208BF7047BF
:100CF8004FF000030AE000BF50EA010208BF704746
:100D080011F0004302D5404261EB41015FEA010C5A
:100D180002BF84460146002043F0B64308BFA3F152
:100D28008053A3F50003BCFA8CF2083AA3EBC25334
:100D380010DB01FA02FC634400FA02FCC2F1200253
:100D4800BCF1004F20FA02F243EB020008BF20F08A
:100D58000100704702F1200201FA02FCC2F12002F0
:100D680050EA4C0021FA02F243EB020008BF20EAE5
:100D7800DC7070474FF0FF0C1CEAD0521EBF1CEA13
:100D8800D15392EA0C0F93EA0C0F6FD01A4480EA01
:100D9800010C400218BF5FEA41211ED04FF00063EA
:100DA80043EA501043EA5111A0FB01310CF0004016
:100DB800B1F5000F3EBF490041EAD3715B0040EA3C
:100DC800010062F17F02FD2A1DD8B3F1004F40EB0C
:100DD800C25008BF20F00100704790F0000F0CF0DF
:100DE800004C08BF49024CEA502040EA51207F3AA3
:100DF800C2BFD2F1FF0340EAC250704740F400007E
:100E08004FF00003013A5DDC12F1190FDCBF00F06E
:100E180000407047C2F10002410021FA02F1C2F11C
:100E2800200200FA02FC5FEA310040F1000053EAB8
:100E38004C0308BF20EADC70704792F0000F00F006
:100E4800004C02BF400010F4000F013AF9D040EA0C
:100E58000C0093F0000F01F0004C02BF490011F4A0
:100E6800000F013BF9D041EA0C018FE70CEAD1539E
:100E780092EA0C0F18BF93EA0C0F0AD030F0004C1E
:100E880018BF31F0004CD8D180EA010000F00040D2
:100E9800704790F0000F17BF90F0004F084691F090
:100EA800000F91F0004F14D092EA0C0F01D14202CA
:100EB8000FD193EA0C0F03D14B0218BF084608D193
:100EC80080EA010000F0004040F0FE4040F40000DD
:100ED800704740F0FE4040F4400070474FF0FF0C70
:100EE8001CEAD0521EBF1CEAD15392EA0C0F93EAB7
:100EF8000C0F69D0A2EB030280EA010C49024FEA09
:100F0800402037D04FF0805343EA111143EA1013C1
:100F18000CF000408B4238BF5B0042F17D024FF479
:100F2800000C8B4224BF5B1A40EA0C00B3EB510F54
:100F380024BFA3EB510340EA5C00B3EB910F24BF3D
:100F4800A3EB910340EA9C00B3EBD10F24BFA3EBC2
:100F5800D10340EADC001B0118BF5FEA1C1CE0D18A
:100F6800FD2A3FF650AF8B4240EBC25008BF20F03D
:100F7800010070470CF0004C4CEA50207F32C2BF91
:100F8800D2F1FF0340EAC250704740F400004FF02E
:100F98000003013A37E792F0000F00F0004C02BF5F
:100FA800400010F4000F013AF9D040EA0C0093F029
:100FB800000F01F0004C02BF490011F4000F013B83
:100FC800F9D041EA0C0195E70CEAD15392EA0C0FEB
:100FD80008D142027FF47DAF93EA0C0F7FF470AF23
:100FE800084676E793EA0C0F04D14B023FF44CAF66
:100FF80008466EE730F0004C18BF31F0004CCAD1FB
:1010080030F000427FF45CAF31F000437FF43CAF36
:101018005FE700BF80B584B000AFF860B9607A6060
:101028007B689AB26423B968034802F012FF7B68B0
:1010380018461037BD4680BD1003002080B582B029
:1010480000AF78607B681B682F4A934257D12F4BBB
:101058001B685B6A1AB22E4B1A802E4B1B685B6AA0
:101068001AB22D4B1A802A4BB3F900309AB22B4B87
:10107800B3F900309BB2D31A9BB21AB2284B1A802C
:10108800284BB3F900309AB2234BB3F900309BB226
:10109800D31A9BB21AB2244B1A80214B1B881BB25D
:1010A8001846FFF713FE034620491846FFF716FFB8
:1010B80003461F491846FFF75DFE03461A461D4BB7
:1010C8001A60194B1B881BB21846FFF7FFFD034631
:1010D80016491846FFF702FF034615491846FFF759
:1010E80049FE03461A46144B1A60094BB3F900200F
:1010F8000A4B1A80084BB3F900200A4B1A8000BF2C
:101108000837BD4680BD00BF00100040F001002038
:1011180058030020380200205A0300205C030020F6
:10112800600300205E030020620300200000A54445
:101138000080BB45640300206803002080B500AF31
:1011480000F09CFD00F05CF800F06CFA00F040FA4A
:1011580000F044F900F09AF800F0ECF800F074F9A7
:101168003C211F4801F03EFF3C211E4801F03AFF98
:101178001B4B1B685B6A1AB21B4B1A80194B1B6806
:101188005B6A1AB2194B1A80194801F017FD002141
:10119800184801F0CBFD0421164801F0C7FD0821CD
:1011A800144801F0C3FD0C21124801F0BFFD4FF4B3
:1011B800FA61002000F0A6FA40F6B83000F0C0FD51
:1011C8000D4B1B681846FFF797F902460B460B486C
:1011D80003F032FD40F6B83000F0B2FD00BFE6E79C
:1011E800F0010020380200205C0300205E0300208C
:1011F80080020020C802002068030020586B000805
:1012080080B590B000AF07F11803282200211846D6
:1012180003F067FD3B1D00221A605A609A60DA608D
:101228001A610123BB614FF48033FB6100233B62E9
:101238000123BB6202237B634FF48033BB634FF40B
:10124800E013FB6307F11803184601F057F803464B
:10125800002B01D000F0ACFA0F237B600223BB60A7
:101268000023FB604FF480633B6100237B613B1DDF
:101278000221184601F0C4FA0346002B01D000F001
:1012880097FA00BF4037BD4680BD000080B58CB0DE
:1012980000AF07F10C0324220021184603F021FDBA
:1012A8003B1D00221A605A60204B214A1A601F4BCE
:1012B80000225A601D4B00229A601C4B4FF6FF72A9
:1012C800DA601A4B00221A61184B00229A61032334
:1012D800FB6000233B6101237B610023BB610A2380
:1012E800FB6100233B6201237B620023BB620A236C
:1012F800FB6207F10C0319460C4801F0D1FD0346C7
:10130800002B01D000F054FA00237B600023BB605F
:101318003B1D1946054802F07DFC0346002B01D011
:1013280000F046FA00BF3037BD4680BDF00100200E
:101338000004004080B58CB000AF07F10C032422F4
:101348000021184603F0CDFC3B1D00221A605A60AC
:10135800204B214A1A601F4B00225A601D4B002265
:101368009A601C4B4FF6FF72DA601A4B00221A6122
:10137800184B00229A610323FB6000233B61012381
:101388007B610023BB610A23FB6100233B620123CD
:101398007B620023BB620A23FB6207F10C03194638
:1013A8000C4801F07DFD0346002B01D000F000FA47
:1013B80000237B600023BB603B1D1946054802F0F3
:1013C80029FC0346002B01D000F0F2F900BF3037AA
:1013D800BD4680BD380200200008004080B582B0BC
:1013E80000AF3B4600221A605A60154B154A1A6036
:1013F800134B41F61F425A60114B00229A60104B62
:101408006322DA600E4B00229A610D4801F086FBD8
:101418000346002B01D000F0CBF900233B600023EA
:101428007B603B461946064802F0F4FB0346002B56
:1014380001D000F0BDF900BF0837BD4680BD00BF30
:10144800800200200010004080B596B000AF07F180
:10145800480300221A605A609A60DA6007F1400374
:1014680000221A605A6007F1240300221A605A60A9
:101478009A60DA601A615A619A613B1D2022002144
:10148800184603F02EFC504B504A1A604E4B00226F
:101498005A604D4B00229A604B4B40F63F32DA605F
:1014A800494B00221A61484B00225A61464B0022E0
:1014B8009A61454801F032FB0346002B01D000F049
:1014C80077F94FF48053BB6407F1480319463E4847
:1014D80001F0C8FF0346002B01D000F069F93A4833
:1014E80001F0CCFB0346002B01D000F061F900238A
:1014F8003B6400237B6407F140031946324802F03D
:1015080089FB0346002B01D000F052F960237B626F
:101518000023BB620023FB6200233B6300237B6341
:101528000023BB630023FB6307F124030022194651
:10153800254801F0D5FE0346002B01D000F038F90C
:1015480007F12403042219461F4801F0C9FE034687
:10155800002B01D000F02CF907F1240308221946CA
:10156800194801F0BDFE0346002B01D000F020F918
:1015780007F124030C221946134801F0B1FE034673
:10158800002B01D000F014F900237B600023BB601E
:101598000023FB6000233B6100237B614FF4005371
:1015A800BB6100233B623B1D1946074802F09EFBC6
:1015B8000346002B01D000F0FBF8034800F0D6F9F1
:1015C80000BF5837BD4680BDC80200200034014026
:1015D80080B500AF114B124A1A60104B4FF4E1323C
:1015E8005A600E4B00229A600C4B0022DA600B4BBB
:1015F80000221A61094B0C225A61084B00229A6199
:10160800064B0022DA61054802F0D3FB0346002BA3
:1016180001D000F0CDF800BF80BD00BF100300204E
:101628000038014080B588B000AF07F110030022F0
:101638001A605A609A60DA60234B9B69224A43F029
:1016480020039361204B9B6903F02003FB60FB6838
:101658001D4B9B691C4A43F0040393611A4B9B6919
:1016680003F00403BB60BB68174B9B69164A43F041
:1016780010039361144B9B6903F010037B607B6834
:10168800114B9B69104A43F0080393610E4B9B6909
:1016980003F008033B603B68002208210B4800F078
:1016A80015FE08233B6101237B610023BB610223F4
:1016B800FB6107F110031946044800F073FC00BFF2
:1016C8002037BD4680BD00BF00100240000C01401D
:1016D80080B483B000AF78607B68B3F5346F02DB09
:1016E80040F63F3306E07B6813F5346F01DC044BAA
:1016F80000E07B6818460C37BD4680BC704700BFC9
:10170800C1F4FFFF80B582B000AF786039607868B7
:10171800FFF7DEFF78603868FFF7DAFF38607B682C
:10172800002B08DD214B1B6800225A631F4B1B68E6
:101738007A689A6314E07B68002B09DA7B685A425E
:101748001A4B1B685A63194B1B6800229A6307E0FF
:10175800164B1B6800225A63144B1B6800229A63BD
:101768003B68002B08DD114B1B683A68DA630F4BA6
:101778001B6800221A6414E03B68002B09DA0B4B43
:101788001B680022DA633B685A42084B1B681A64DC
:1017980007E0064B1B680022DA63044B1B68002233
:1017A8001A6400BF0837BD4680BD00BFC8020020CC
:1017B80080B400AF72B600BF00BFFDE780B485B04B
:1017C80000AF154B9B69144A43F001039361124B18
:1017D8009B6903F00103BB60BB680F4BDB690E4AD2
:1017E80043F08053D3610C4BDB6903F080537B607B
:1017F8007B680A4B5B68FB60FB6823F0E063FB6077
:10180800FB6843F00073FB60044AFB68536000BF49
:101818001437BD4680BC70470010024000000140EC
:1018280080B58AB000AF786007F1180300221A600B
:101838005A609A60DA607B681B682A4A934224D10E
:10184800294BDB69284A43F00203D361264BDB6945
:1018580003F002037B617B69234B9B69224A43F0B7
:1018680004039361204B9B6903F004033B613B69CC
:10187800C023BB610023FB6100233B6207F118030F
:1018880019461A4800F08EFB28E07B681B68184A46
:10189800934223D1144BDB69134A43F00403D36109
:1018A800114BDB6903F00403FB60FB680E4B9B697B
:1018B8000D4A43F0080393610B4B9B6903F008033F
:1018C800BB60BB68C023BB610023FB6100233B6294
:1018D80007F118031946074800F064FB00BF2837D2
:1018E800BD4680BD000400400010024000080140D1
:1018F80000080040000C014080B584B000AF78605B
:101908007B681B68164A934214D1164BDB69154A4B
:1019180043F01003D361134BDB6903F01003FB6042
:10192800FB6800220021362000F005FB362000F07D
:101938001EFB10E07B681B680B4A93420BD1094BD6
:101948009B69084A43F400539361064B9B6903F46F
:101958000053BB60BB6800BF1037BD4680BD00BFE9
:1019680000100040001002400034014080B588B0EB
:1019780000AF786007F1100300221A605A609A607D
:10198800DA607B681B68104A934218D10F4B9B6939
:101998000E4A43F0100393610C4B9B6903F010034C
:1019A800FB60FB684FF470733B6102237B61022389
:1019B800FB6107F110031946054800F0F3FA00BF70
:1019C8002037BD4680BD00BF0034014000100240F2
:1019D8000010014080B588B000AF786007F11003AF
:1019E80000221A605A609A60DA607B681B681C4A99
:1019F800934231D11B4B9B691A4A43F4804393614C
:101A0800184B9B6903F48043FB60FB68154B9B698B
:101A1800144A43F004039361124B9B6903F00403D7
:101A2800BB60BB684FF400733B6102237B610323F7
:101A3800FB6107F1100319460B4800F0B3FA4FF4A5
:101A480080633B6100237B610023BB6107F11003C6
:101A58001946054800F0A6FA00BF2037BD4680BDEC
:101A680000380140001002400008014080B400AF77
:101A780000BFFDE780B400AF00BFFDE780B400AF52
:101A880000BFFDE780B400AF00BFFDE780B400AF42
:101A980000BFFDE780B400AF00BFBD4680BC704703
:101AA80080B400AF00BFBD4680BC704780B400AFB3
:101AB80000BFBD4680BC704780B500AF00F024F978
:101AC80000BF80BD80B500AF024801F019FB00BF20
:101AD80080BD00BF8002002080B400AF01231846FB
:101AE800BD4680BC704780B582B000AF7860396071
:101AF80003F04AF9034616221A604FF0FF331846DE
:101B08000837BD4680BD80B582B000AF78604FF021
:101B1800FF317868FFF7E7FF00BFFDE780B586B0C3
:101B280000AFF860B9607A6000237B610AE0AFF328
:101B380000800146BB685A1CBA60CAB21A707B6939
:101B480001337B617A697B689A42F0DB7B681846CF
:101B58001837BD4680BD80B483B000AF78604FF0C1
:101B6800FF3318460C37BD4680BC704780B483B03D
:101B780000AF786039603B684FF400525A60002328
:101B880018460C37BD4680BC704780B483B000AFA0
:101B98007860012318460C37BD4680BC704780B476
:101BA80085B000AFF860B9607A6000231846143732
:101BB800BD4680BC7047000080B586B000AF786035
:101BC800144A154BD31A7B617B693B61134B1B6825
:101BD800002B02D1114B124A1A60104B1A687B680D
:101BE80013443A699A4207D203F0CEF803460C220E
:101BF8001A604FF0FF3309E0084B1B68FB60074B86
:101C08001A687B681344054A1360FB68184618373E
:101C1800BD4680BD00C00020000400006C03002009
:101C2800C004002080B400AF00BFBD4680BC704730
:101C3800FFF7F8FF0B480C490C4A002302E0D45880
:101C4800C4500433C4188C42F9D3094A094C002300
:101C580001E013600432A242FBD303F09BF8FFF7C4
:101C68006DFA704700000020D4010020106F0008B2
:101C7800D4010020C0040020FEE7000080B500AFBA
:101C8800084B1B68074A43F010031360032000F059
:101C980047F90F2000F008F8FFF790FD00231846D9
:101CA80080BD00BF0020024080B582B000AF7860E0
:101CB800124B1A68124B1B7819464FF47A73B3FB10
:101CC800F1F3B2FBF3F3184600F05FF90346002B7B
:101CD80001D001230EE07B680F2B0AD80022796817
:101CE8004FF0FF3000F027F9064A7B6813600023A5
:101CF80000E0012318460837BD4680BD00000020DB
:101D0800080000200400002080B400AF054B1B78B9
:101D18001A46054B1B681344034A136000BFBD46AF
:101D280080BC7047080000207003002080B400AF1A
:101D3800024B1B681846BD4680BC704770030020E4
:101D480080B584B000AF7860FFF7F0FFB8607B68BB
:101D5800FB60FB68B3F1FF3F05D00A4B1B781A46BE
:101D6800FB681344FB6000BFFFF7E0FF0246BB6857
:101D7800D31AFA689A42F7D800BF00BF1037BD4699
:101D880080BD00BF0800002080B485B000AF786037
:101D98007B6803F00703FB600C4BDB68BB60BA6829
:101DA8004FF6FF031340BB60FB681A02BB6813437E
:101DB80043F0BF6343F40033BB60044ABB68D3609D
:101DC80000BF1437BD4680BC704700BF00ED00E07F
:101DD80080B400AF044BDB681B0A03F00703184606
:101DE800BD4680BC704700BF00ED00E080B483B002
:101DF80000AF0346FB7197F90730002B0BDBFB792B
:101E080003F01F02064997F907305B09012000FA21
:101E180002F241F8232000BF0C37BD4680BC704752
:101E280000E100E080B483B000AF03463960FB7185
:101E380097F90730002B0ADB3B68DAB20C4997F9AF
:101E480007301201D2B20B4483F800230AE03B6842
:101E5800DAB20849FB7903F00F03043B1201D2B24E
:101E68000B441A7600BF0C37BD4680BC704700BFD4
:101E780000E100E000ED00E080B489B000AFF86058
:101E8800B9607A60FB6803F00703FB61FB69C3F183
:101E98000703042B28BF0423BB61FB690433062B0B
:101EA80002D9FB69033B00E000237B614FF0FF325E
:101EB800BB6902FA03F3DA43BB681A407B699A40AC
:101EC8004FF0FF317B6901FA03F3D9437B680B407C
:101ED800134318462437BD4680BC704780B582B08E
:101EE80000AF78607B68013BB3F1807F01D30123A9
:101EF8000FE00A4A7B68013B53600F214FF0FF3027
:101F0800FFF790FF054B00229A60044B07221A60E6
:101F1800002318460837BD4680BD00BF10E000E02A
:101F280080B582B000AF78607868FFF72DFF00BFFA
:101F38000837BD4680BD80B586B000AF0346B9609E
:101F48007A60FB7300237B61FFF742FF78617A6850
:101F5800B9687869FFF790FF024697F90F30114684
:101F68001846FFF75FFF00BF1837BD4680BD80B534
:101F780082B000AF0346FB7197F907301846FFF7A8
:101F880035FF00BF0837BD4680BD80B582B000AFC1
:101F980078607868FFF7A2FF034618460837BD4601
:101FA80080BD000080B48BB000AF7860396000233A
:101FB8007B6200233B6279E101227B6A02FA03F328
:101FC800FB613B681B68FA691340BB61BA69FB692E
:101FD8009A4240F068813B685B68964A93425ED0BB
:101FE800944A934275D8944A934258D0924A93425D
:101FF8006FD8924A934252D0904A934269D8904AF5
:1020080093424CD08E4A934263D88E4A934246D02C
:102018008C4A93425DD8122B2AD8122B59D801A288
:1020280052F823F0A7200008812000089320000818
:10203800D5200008DB200008DB200008DB20000892
:10204800DB200008DB200008DB200008DB2000087C
:10205800DB200008DB200008DB200008DB2000086C
:10206800DB200008DB200008892000089D200008EC
:10207800754A934213D02CE03B68DB683B6229E049
:102088003B68DB6804333B6224E03B68DB68083369
:102098003B621FE03B68DB680C333B621AE03B683D
:1020A8009B68002B02D104233B6213E03B689B68CA
:1020B800012B05D108233B627B68FA691A6109E0A4
:1020C80008233B627B68FA695A6103E000233B629C
:1020D80000E000BFBB69FF2B01D87B6801E07B688B
:1020E80004337B61BB69FF2B02D87B6A9B0002E04B
:1020F8007B6A083B9B003B617B691A680F213B693F
:1021080001FA03F3DB431A40396A3B6901FA03F326
:102118001A437B691A603B685B6803F08053002BA5
:1021280000F0C180494B9B69484A43F00103936121
:10213800464B9B6903F00103BB60BB68444A7B6A5A
:102148009B08023352F82330FB607B6A03F00303D9
:102158009B000F2202FA03F3DB43FA681340FB608B
:102168007B683C4A93421FD07B683B4A934219D014
:102178007B683A4A934213D07B68394A93420DD020
:102188007B68384A934207D07B68374A934201D12B
:1021980005230AE0062308E0042306E0032304E0FD
:1021A800022302E0012300E000237A6A02F003021E
:1021B80092009340FA681343FB6025497B6A9B08A9
:1021C8000233FA6841F823203B685B6803F4801304
:1021D800002B06D0254B9A682449BB6913438B60B2
:1021E80006E0224B9A68BB69DB43204913408B60A9
:1021F8003B685B6803F40013002B06D01B4BDA68BE
:102208001A49BB691343CB6006E0184BDA68BB690F
:10221800DB4316491340CB603B685B6803F400332B
:10222800002B25D0114B5A681049BB6913434B60EA
:1022380025E000BF0000321000003110000022101D
:1022480000002110000012100000111000100240C0
:102258000000014000080140000C0140001001404E
:102268000014014000180140001C01400004014016
:10227800154B5A68BB69DB43134913404B603B68F5
:102288005B6803F48033002B06D00F4B1A680E49A5
:10229800BB6913430B6006E00B4B1A68BB69DB4351
:1022A800094913400B607B6A01337B623B681A68FB
:1022B8007B6A22FA03F3002B7FF47EAE00BF00BFD7
:1022C8002C37BD4680BC70470004014080B483B001
:1022D80000AF78600B467B8013467B707B78002BC1
:1022E80003D07A887B681A6103E07B881A047B68CC
:1022F8001A6100BF0C37BD4680BC704780B586B0F8
:1023080000AF78607B68002B01D1012372E27B6803
:102318001B6803F00103002B00F08780924B5B6879
:1023280003F00C03042B0CD08F4B5B6803F00C03F9
:10233800082B12D18C4B5B6803F48033B3F5803FD4
:102348000BD1894B1B6803F40033002B6CD07B68DE
:102358005B68002B68D101234CE27B685B68B3F5AE
:10236800803F06D1804B1B687F4A43F4803313605B
:102378002EE07B685B68002B0CD17B4B1B687A4A8C
:1023880023F480331360784B1B68774A23F4802347
:1023980013601DE07B685B68B3F5A02F0CD1724B0E
:1023A8001B68714A43F4802313606F4B1B686E4AA5
:1023B80043F4803313600BE06B4B1B686A4A23F4C9
:1023C80080331360684B1B68674A23F480231360CB
:1023D8007B685B68002B13D0FFF7A8FC386108E026
:1023E800FFF7A4FC02463B69D31A642B01D90323E7
:1023F80000E25D4B1B6803F40033002BF0D014E0BF
:10240800FFF794FC386108E0FFF790FC02463B694F
:10241800D31A642B01D90323ECE1534B1B6803F453
:102428000033002BF0D100E000BF7B681B6803F08D
:102438000203002B63D04C4B5B6803F00C03002BAA
:102448000BD0494B5B6803F00C03082B1CD1464B9F
:102458005B6803F48033002B16D1434B1B6803F0F1
:102468000203002B05D07B681B69012B01D00123D7
:10247800C0E13D4B1B6823F0F8027B685B69DB0019
:10248800394913430B603AE07B681B69002B20D065
:10249800364B01221A60FFF749FC386108E0FFF764
:1024A80045FC02463B69D31A022B01D90323A1E15B
:1024B8002D4B1B6803F00203002BF0D02A4B1B683E
:1024C80023F0F8027B685B69DB00274913430B6044
:1024D80015E0264B00221A60FFF728FC386108E057
:1024E800FFF724FC02463B69D31A022B01D90323C8
:1024F80080E11D4B1B6803F00203002BF0D17B68C1
:102508001B6803F00803002B3AD07B689B69002BFB
:1025180019D0174B01221A60FFF708FC386108E050
:10252800FFF704FC02463B69D31A022B01D90323A7
:1025380060E10D4B5B6A03F00203002BF0D0012031
:1025480000F0CEFA1CE00A4B00221A60FFF7EEFBFF
:1025580038610FE0FFF7EAFB02463B69D31A022B0A
:1025680008D9032346E100BF0010024000004242A0
:1025780080044242924B5B6A03F00203002BE9D1CC
:102588007B681B6803F00403002B00F0A68000237F
:10259800FB758B4BDB6903F08053002B0DD1884B07
:1025A800DB69874A43F08053D361854BDB6903F0CD
:1025B8008053BB60BB680123FB75824B1B6803F427
:1025C8008073002B18D17F4B1B687E4A43F48073BD
:1025D8001360FFF7ABFB386108E0FFF7A7FB024683
:1025E8003B69D31A642B01D9032303E1754B1B689C
:1025F80003F48073002BF0D07B68DB68012B06D1D5
:102608006F4B1B6A6E4A43F0010313622DE07B682F
:10261800DB68002B0CD16A4B1B6A694A23F0010363
:102628001362674B1B6A664A23F0040313621CE0BB
:102638007B68DB68052B0CD1614B1B6A604A43F051
:10264800040313625E4B1B6A5D4A43F00103136285
:102658000BE05B4B1B6A5A4A23F001031362584B89
:102668001B6A574A23F0040313627B68DB68002B5C
:1026780015D0FFF75BFB38610AE0FFF757FB02460E
:102688003B69D31A41F28832934201D90323B1E05E
:102698004B4B1B6A03F00203002BEED014E0FFF74C
:1026A80045FB38610AE0FFF741FB02463B69D31A54
:1026B80041F28832934201D903239BE0404B1B6AC5
:1026C80003F00203002BEED1FB7D012B05D13C4B1F
:1026D800DB693B4A23F08053D3617B68DB69002BBD
:1026E80000F08780364B5B6803F00C03082B61D041
:1026F8007B68DB69022B46D1334B00221A60FFF757
:1027080015FB386108E0FFF711FB02463B69D31A55
:10271800022B01D903236DE0294B1B6803F00073DA
:10272800002BF0D17B681B6AB3F5803F08D1244B9E
:102738005B6823F400327B689B68214913434B6034
:102748001F4B5B6823F474127B68196A7B685B6AA9
:102758000B431B4913434B601B4B01221A60FFF7C5
:10276800E5FA386108E0FFF7E1FA02463B69D31A57
:10277800022B01D903233DE0114B1B6803F00073C2
:10278800002BF0D035E0104B00221A60FFF7CEFA8C
:10279800386108E0FFF7CAFA02463B69D31A022BF0
:1027A80001D9032326E0064B1B6803F00073002BB6
:1027B800F0D11EE07B68DB69012B07D1012319E00A
:1027C8000010024000700040600042420B4B5B6802
:1027D800FB60FB6803F480327B681B6A9A4206D16F
:1027E800FB6803F470127B685B6A9A4201D001238C
:1027F80000E0002318461837BD4680BD001002408F
:1028080080B584B000AF786039607B68002B01D157
:102818000123D0E06A4B1B6803F007033A689A4229
:1028280010D9674B1B6823F0070265493B681343BF
:102838000B60634B1B6803F007033A689A4201D0A8
:102848000123B8E07B681B6803F00203002B20D04B
:102858007B681B6803F00403002B05D0594B5B68A9
:10286800584A43F4E06353607B681B6803F008032D
:10287800002B05D0534B5B68524A43F460535360B6
:10288800504B5B6823F0F0027B689B684D4913430B
:102898004B607B681B6803F00103002B40D07B680A
:1028A8005B68012B07D1474B1B6803F40033002BEF
:1028B80015D101237FE07B685B68022B07D1414B70
:1028C8001B6803F00073002B09D1012373E03D4B13
:1028D8001B6803F00203002B01D101236BE0394B85
:1028E8005B6823F003027B685B68364913434B60DF
:1028F800FFF71CFAF8600AE0FFF718FA0246FB68CF
:10290800D31A41F28832934201D9032353E02D4B65
:102918005B6803F00C027B685B689B009A42EBD112
:10292800274B1B6803F007033A689A4210D2244BDE
:102938001B6823F0070222493B6813430B60204BB6
:102948001B6803F007033A689A4201D0012332E07A
:102958007B681B6803F00403002B08D0194B5B68E5
:1029680023F4E0627B68DB68164913434B607B689D
:102978001B6803F00803002B09D0124B5B6823F493
:1029880060527B681B69DB000E4913434B6000F003
:1029980021F802460B4B5B681B0903F00F030A4939
:1029A800CB5C22FA03F3094A1360094B1B681846EB
:1029B800FFF77AF9002318461037BD4680BD00BFDF
:1029C8000020024000100240686B00080000002050
:1029D8000400002080B487B000AF0023FB60002310
:1029E800BB6000237B6100237B6000233B611E4B9F
:1029F8005B68FB60FB6803F00C03042B02D0082B18
:102A080003D027E0194B3B6127E0FB689B0C03F0E0
:102A18000F03174AD35C7B60FB6803F48033002BF9
:102A280010D0114B5B685B0C03F00103114AD35CB7
:102A3800BB607B680D4A03FB02F2BB68B2FBF3F391
:102A48007B6104E07B680C4A02FB03F37B617B69D2
:102A58003B6102E0054B3B6100BF3B6918461C37F0
:102A6800BD4680BC704700BF0010024000127A00CB
:102A7800806B0008906B000800093D0080B400AF2F
:102A8800024B1B681846BD4680BC704700000020FA
:102A980080B500AFFFF7F2FF0246054B5B681B0AE3
:102AA80003F007030349CB5C22FA03F3184680BD01
:102AB80000100240786B000880B500AFFFF7DEFF1A
:102AC8000246054B5B68DB0A03F007030349CB5C4E
:102AD80022FA03F3184680BD00100240786B000804
:102AE80080B485B000AF78600A4B1B680A4AA2FB25
:102AF80003235B0A7A6802FB03F3FB6000BFFB68F1
:102B08005A1EFA60002BF9D100BF00BF1437BD462A
:102B180080BC704700000020D34D621080B582B0A1
:102B280000AF78607B68002B01D1012341E07B680E
:102B380093F83D30DBB2002B06D17B68002283F886
:102B48003C207868FEF7D8FE7B68022283F83D2097
:102B58007B681A687B6804331946104600F06EFDDE
:102B68007B68012283F846207B68012283F83E2097
:102B78007B68012283F83F207B68012283F840208C
:102B88007B68012283F841207B68012283F8422078
:102B98007B68012283F843207B68012283F8442064
:102BA8007B68012283F845207B68012283F83D2059
:102BB800002318460837BD4680BD000080B485B0A4
:102BC80000AF78607B6893F83D30DBB2012B01D011
:102BD800012344E07B68022283F83D207B681B6860
:102BE800DA687B681B6842F00102DA607B681B6860
:102BF8001D4A934218D07B681B681C4A934213D025
:102C08007B681B68B3F1804F0ED07B681B68184A3D
:102C1800934209D07B681B68164A934204D07B68AC
:102C28001B68154A934211D17B681B689B6803F0A7
:102C38000703FB60FB68062B10D07B681B681A68CB
:102C48007B681B6842F001021A6007E07B681B681A
:102C58001A687B681B6842F001021A600023184654
:102C68001437BD4680BC7047002C01400034014039
:102C78000004004000080040000C004080B582B00D
:102C880000AF78607B68002B01D1012341E07B68AD
:102C980093F83D30DBB2002B06D17B68002283F825
:102CA8003C20786800F039F87B68022283F83D20E0
:102CB8007B681A687B6804331946104600F0BEFC2E
:102CC8007B68012283F846207B68012283F83E2036
:102CD8007B68012283F83F207B68012283F840202B
:102CE8007B68012283F841207B68012283F8422017
:102CF8007B68012283F843207B68012283F8442003
:102D08007B68012283F845207B68012283F83D20F7
:102D1800002318460837BD4680BD80B483B000AF95
:102D2800786000BF0C37BD4680BC704780B584B062
:102D380000AF786039603B68002B09D17B6893F855
:102D48003E30DBB2012B14BF01230023DBB222E0AB
:102D58003B68042B09D17B6893F83F30DBB2012B29
:102D680014BF01230023DBB215E03B68082B09D10F
:102D78007B6893F84030DBB2012B14BF012300239A
:102D8800DBB208E07B6893F84130DBB2012B14BF5B
:102D980001230023DBB2002B01D0012372E03B6842
:102DA800002B04D17B68022283F83E2013E03B68A5
:102DB800042B04D17B68022283F83F200BE03B6898
:102DC800082B04D17B68022283F8402003E07B684B
:102DD800022283F841207B681B6801223968184663
:102DE80000F0F4FE7B681B68284A934204D07B6895
:102DF8001B68274A934201D1012300E00023002BDE
:102E080007D07B681B685A6C7B681B6842F40042D9
:102E18005A647B681B681D4A934218D07B681B68FC
:102E28001B4A934213D07B681B68B3F1804F0ED0C6
:102E38007B681B68174A934209D07B681B68164A4F
:102E4800934204D07B681B68144A934211D17B6873
:102E58001B689B6803F00703FB60FB68062B10D018
:102E68007B681B681A687B681B6842F001021A605D
:102E780007E07B681B681A687B681B6842F00102E0
:102E88001A60002318461037BD4680BD002C01404B
:102E9800003401400004004000080040000C0040DD
:102EA80080B586B000AF786039607B68002B01D1AF
:102EB800012393E07B6893F83D30DBB2002B06D109
:102EC8007B68002283F83C207868FEF7A9FC7B68C1
:102ED800022283F83D207B681B689B687A68126829
:102EE80023F4804323F0070393607B681A687B68A8
:102EF80004331946104600F0A1FB7B681B689B68E9
:102F08007B617B681B689B693B617B681B681B6AEC
:102F1800FB603B681B687A6913437B613B6923F458
:102F2800407323F003033B613B689A683B689B69E5
:102F38001B0213433A6913433B613B6923F4406323
:102F480023F00C033B613B6923F4704323F0F00347
:102F58003B613B68DA683B68DB691B0213433A69EB
:102F680013433B613B681B691A013B681B6A1B03DF
:102F780013433A6913433B61FB6823F02203FB6068
:102F88003B685A683B685B691B011343FA68134343
:102F9800FB607B681B687A699A607B681B683A6982
:102FA8009A617B681B68FA681A627B68012283F859
:102FB80046207B68012283F83E207B68012283F843
:102FC8003F207B68012283F842207B68012283F836
:102FD80043207B68012283F83D20002318461837D8
:102FE800BD4680BD80B584B000AF786039607B682D
:102FF80093F83E30FB737B6893F83F30BB737B6874
:1030080093F842307B737B6893F843303B733B689B
:10301800002B10D1FB7B012B02D17B7B012B01D034
:10302800012369E07B68022283F83E207B68022244
:1030380083F8422031E03B68042B10D1BB7B012B85
:1030480002D13B7B012B01D0012355E07B68022292
:1030580083F83F207B68022283F843201DE0FB7B36
:10306800012B08D1BB7B012B05D17B7B012B02D126
:103078003B7B012B01D001233EE07B68022283F8D1
:103088003E207B68022283F83F207B68022283F877
:1030980042207B68022283F843203B68002B03D040
:1030A8003B68042B08D00FE07B681B6801220021D5
:1030B800184600F08BFD16E07B681B68012204218E
:1030C800184600F083FD0EE07B681B680122002192
:1030D800184600F07BFD7B681B6801220421184616
:1030E80000F074FD00BF7B681B681A687B681B686A
:1030F80042F001021A60002318461037BD4680BD11
:1031080080B584B000AF78607B681B68DB68FB60C3
:103118007B681B681B69BB60BB6803F00203002B5C
:1031280020D0FB6803F00203002B1BD07B681B68D0
:103138006FF002021A617B6801221A777B681B68AC
:103148009B6903F00303002B03D0786800F05AFA58
:1031580005E0786800F04DFA786800F05CFA7B6862
:1031680000221A77BB6803F00403002B20D0FB6809
:1031780003F00403002B1BD07B681B686FF004026C
:103188001A617B6802221A777B681B689B6903F4C3
:103198004073002B03D0786800F034FA05E07868B3
:1031A80000F027FA786800F036FA7B6800221A7770
:1031B800BB6803F00803002B20D0FB6803F008036A
:1031C800002B1BD07B681B686FF008021A617B68B4
:1031D80004221A777B681B68DB6903F00303002B62
:1031E80003D0786800F00EFA05E0786800F001FA7C
:1031F800786800F010FA7B6800221A77BB6803F041
:103208001003002B20D0FB6803F01003002B1BD009
:103218007B681B686FF010021A617B6808221A77B6
:103228007B681B68DB6903F44073002B03D0786864
:1032380000F0E8F905E0786800F0DBF9786800F05C
:10324800EAF97B6800221A77BB6803F00103002BB8
:103258000CD0FB6803F00103002B07D07B681B68C8
:103268006FF001021A617868FDF7E8FEBB6803F0A9
:103278008003002B0CD0FB6803F08003002B07D0E1
:103288007B681B686FF080021A61786800F088FD1F
:10329800BB6803F04003002B0CD0FB6803F040032D
:1032A800002B07D07B681B686FF040021A617868B2
:1032B80000F0BAF9BB6803F02003002B0CD0FB68C0
:1032C80003F02003002B07D07B681B686FF02002F7
:1032D8001A61786800F05BFD00BF1037BD4680BDFD
:1032E80080B586B000AFF860B9607A600023FB75DE
:1032F800FB6893F83C30012B01D10223AEE0FB6858
:10330800012283F83C207B680C2B00F29F8001A2ED
:1033180052F823F05133000855340008553400089A
:103328005534000891330008553400085534000816
:1033380055340008D33300085534000855340008C4
:103348005534000813340008FB681B68B968184630
:1033580000F0FAF9FB681B689A69FB681B6842F081
:1033680008029A61FB681B689A69FB681B6822F06F
:1033780004029A61FB681B689969BB681A69FB6853
:103388001B680A439A6164E0FB681B68B9681846C1
:1033980000F04AFAFB681B689A69FB681B6842F4EC
:1033A80000629A61FB681B689A69FB681B6822F4D3
:1033B80080629A61FB681B689969BB681B691A027D
:1033C800FB681B680A439A6143E0FB681B68B9689D
:1033D800184600F09DFAFB681B68DA69FB681B68F1
:1033E80042F00802DA61FB681B68DA69FB681B684F
:1033F80022F00402DA61FB681B68D969BB681A69A4
:10340800FB681B680A43DA6123E0FB681B68B9683C
:10341800184600F0F1FAFB681B68DA69FB681B685C
:1034280042F40062DA61FB681B68DA69FB681B68B2
:1034380022F48062DA61FB681B68D969BB681B6982
:103448001A02FB681B680A43DA6102E00123FB7574
:1034580000BFFB68002283F83C20FB7D1846183724
:10346800BD4680BD80B584B000AF78603960002368
:10347800FB737B6893F83C30012B01D10223B4E045
:103488007B68012283F83C207B68022283F83D2078
:103498007B681B689B68BB60BB6823F07703BB60D5
:1034A800BB6823F47F43BB607B681B68BA689A607B
:1034B8003B681B68B3F5005F3ED0B3F5005F00F2D0
:1034C8008780B3F5805F00F08680B3F5805F7FD892
:1034D800702B1AD0702B7BD8602B50D0602B77D8EC
:1034E800502B3CD0502B73D8402B58D0402B6FD842
:1034F800302B64D0302B6BD8202B60D0202B67D892
:10350800002B5CD0102B5AD062E07B6818683B68AF
:1035180099683B685A683B68DB6800F038FB7B6851
:103528001B689B68BB60BB6843F07703BB607B6824
:103538001B68BA689A604FE07B6818683B689968AE
:103548003B685A683B68DB6800F021FB7B681B68B6
:103558009A687B681B6842F480429A603CE07B680A
:1035680018683B6859683B68DB681A4600F098FAA7
:103578007B681B685021184600F0EFFA2CE07B6846
:1035880018683B6859683B68DB681A4600F0B6FA69
:103598007B681B686021184600F0DFFA1CE07B6836
:1035A80018683B6859683B68DB681A4600F078FA87
:1035B8007B681B684021184600F0CFFA0CE07B6856
:1035C8001A683B681B681946104600F0C6FA03E003
:1035D8000123FB7300E000BF7B68012283F83D20D4
:1035E8007B68002283F83C20FB7B18461037BD46D9
:1035F80080BD80B483B000AF786000BF0C37BD4693
:1036080080BC704780B483B000AF786000BF0C37CF
:10361800BD4680BC704780B483B000AF786000BFFF
:103628000C37BD4680BC704780B483B000AF78606B
:1036380000BF0C37BD4680BC7047000080B485B021
:1036480000AF786039607B681B68FB607B68394A2B
:10365800934213D07B68384A93420FD07B68B3F10A
:10366800804F0BD07B68354A934207D07B68344A39
:10367800934203D07B68334A934208D1FB6823F016
:103688007003FB603B685B68FA681343FB607B6808
:10369800284A934213D07B68274A93420FD07B680D
:1036A800B3F1804F0BD07B68244A934207D07B68E4
:1036B800234A934203D07B68224A934208D1FB688D
:1036C80023F44073FB603B68DB68FA681343FB60D4
:1036D800FB6823F080023B685B691343FB607B68EF
:1036E800FA681A603B689A687B68DA623B681A680D
:1036F8007B689A627B680F4A934203D07B680E4AC4
:10370800934203D13B681A697B681A637B6801227C
:103718005A617B681B6903F00103002B05D07B68A5
:103728001B6923F001027B681A6100BF1437BD468C
:1037380080BC7047002C0140003401400004004068
:1037480000080040000C004080B487B000AF7860EB
:1037580039607B681B6A7B617B681B6A23F0010206
:103768007B681A627B685B683B617B689B69FB606E
:10377800FB6823F07003FB60FB6823F00303FB6026
:103788003B681B68FA681343FB607B6923F00203FC
:103798007B613B689B687A6913437B617B68204A3D
:1037A800934203D07B681F4A93420CD17B6923F074
:1037B80008037B613B68DB687A6913437B617B693B
:1037C80023F004037B617B68154A934203D07B682E
:1037D800144A934211D13B6923F480733B613B69DE
:1037E80023F400733B613B685B693A6913433B61AF
:1037F8003B689B693A6913433B617B683A695A6045
:103808007B68FA689A613B685A687B685A637B6888
:103818007A691A6200BF1C37BD4680BC704700BF7A
:10382800002C01400034014080B487B000AF7860BC
:1038380039607B681B6A7B617B681B6A23F0100216
:103848007B681A627B685B683B617B689B69FB608D
:10385800FB6823F4E043FB60FB6823F44073FB60E0
:103868003B681B681B02FA681343FB607B6923F003
:1038780020037B613B689B681B017A6913437B616A
:103888007B68214A934203D07B68204A93420DD13A
:103898007B6923F080037B613B68DB681B017A69E5
:1038A80013437B617B6923F040037B617B68164A85
:1038B800934203D07B68154A934213D13B6923F4A2
:1038C80080633B613B6923F400633B613B685B6950
:1038D8009B003A6913433B613B689B699B003A69CB
:1038E80013433B617B683A695A607B68FA689A615E
:1038F8003B685A687B689A637B687A691A6200BF7A
:103908001C37BD4680BC7047002C01400034014084
:1039180080B487B000AF786039607B681B6A7B61D0
:103928007B681B6A23F480727B681A627B685B6819
:103938003B617B68DB69FB60FB6823F07003FB601D
:10394800FB6823F00303FB603B681B68FA681343BA
:10395800FB607B6923F400737B613B689B681B02F7
:103968007A6913437B617B68214A934203D07B6861
:10397800204A93420DD17B6923F400637B613B6845
:10398800DB681B027A6913437B617B6923F48063DC
:103998007B617B68164A934203D07B68154A934241
:1039A80013D13B6923F480533B613B6923F40053F3
:1039B8003B613B685B691B013A6913433B613B68A8
:1039C8009B691B013A6913433B617B683A695A60FA
:1039D8007B68FA68DA613B685A687B68DA637B68F7
:1039E8007A691A6200BF1C37BD4680BC704700BFA9
:1039F800002C01400034014080B487B000AF7860EB
:103A080039607B681B6A3B617B681B6A23F48052C0
:103A18007B681A627B685B687B617B68DB69FB603B
:103A2800FB6823F4E043FB60FB6823F44073FB600E
:103A38003B681B681B02FA681343FB603B6923F46D
:103A480000533B613B689B681B033A6913433B6126
:103A58007B68114A934203D07B68104A934209D18C
:103A68007B6923F480437B613B685B699B017A69CE
:103A780013437B617B687A695A607B68FA68DA610C
:103A88003B685A687B681A647B683A691A6200BFA7
:103A98001C37BD4680BC7047002C014000340140F3
:103AA80080B487B000AFF860B9607A60FB681B6AC1
:103AB8007B61FB681B6A23F00102FB681A62FB68E2
:103AC8009B693B613B6923F0F0033B617B681B0109
:103AD8003A6913433B617B6923F00A037B617A6986
:103AE800BB6813437B61FB683A699A61FB687A6932
:103AF8001A6200BF1C37BD4680BC704780B487B0CF
:103B080000AFF860B9607A60FB681B6A7B61FB688C
:103B18001B6A23F01002FB681A62FB689B693B6111
:103B28003B6923F470433B617B681B033A69134389
:103B38003B617B6923F0A0037B61BB681B017A6949
:103B480013437B61FB683A699A61FB687A691A6278
:103B580000BF1C37BD4680BC704780B485B000AF3D
:103B6800786039607B689B68FB60FB6823F07003B2
:103B7800FB603A68FB68134343F00703FB607B680C
:103B8800FA689A6000BF1437BD4680BC704780B49D
:103B980087B000AFF860B9607A603B60FB689B68EB
:103BA8007B617B6923F47F437B613B681A027B68F6
:103BB8001A43BB6813437A6913437B61FB687A69CC
:103BC8009A6000BF1C37BD4680BC704780B487B080
:103BD80000AFF860B9607A60BB6803F01F03012288
:103BE80002FA03F37B61FB681A6A7B69DB431A40BC
:103BF800FB681A62FB681A6ABB6803F01F037968DE
:103C080001FA03F31A43FB681A6200BF1C37BD466A
:103C180080BC704780B485B000AF786039607B683D
:103C280093F83C30012B01D1022350E07B6801223C
:103C380083F83C207B68022283F83D207B681B6860
:103C48005B68FB607B681B689B68BB60FB6823F054
:103C58007003FB603B681B68FA681343FB607B6872
:103C68001B68FA685A607B681B681B4A934218D025
:103C78007B681B68194A934213D07B681B68B3F1B1
:103C8800804F0ED07B681B68154A934209D07B6829
:103C98001B68144A934204D07B681B68124A9342FB
:103CA8000CD1BB6823F08003BB603B685B68BA68D3
:103CB8001343BB607B681B68BA689A607B68012203
:103CC80083F83D207B68002283F83C2000231846B7
:103CD8001437BD4680BC7047002C014000340140B9
:103CE8000004004000080040000C004080B485B08B
:103CF80000AF786039600023FB607B6893F83C3044
:103D0800012B01D102233DE07B68012283F83C208E
:103D1800FB6823F0FF023B68DB681343FB60FB682A
:103D280023F440723B689B681343FB60FB6823F4F1
:103D380080623B685B681343FB60FB6823F40062A6
:103D48003B681B681343FB60FB6823F480523B68A5
:103D58001B691343FB60FB6823F400523B685B69F3
:103D68001343FB60FB6823F480423B68DB69134321
:103D7800FB607B681B68FA685A647B68002283F8DA
:103D88003C20002318461437BD4680BC704780B4D9
:103D980083B000AF786000BF0C37BD4680BC704769
:103DA80080B483B000AF786000BF0C37BD4680BCDC
:103DB800704780B582B000AF78607B68002B01D176
:103DC800012342E07B6893F84130DBB2002B06D137
:103DD8007B68002283F840207868FDF7FBFD7B684C
:103DE800242283F841207B681B68DA687B681B689B
:103DF80022F40052DA60786800F072F97B681B6878
:103E08001A697B681B6822F490421A617B681B68F8
:103E18005A697B681B6822F02A025A617B681B6812
:103E2800DA687B681B6842F40052DA607B6800221B
:103E38005A647B68202283F841207B68202283F81B
:103E480042207B6800225A63002318460837BD4683
:103E580080BD80B58AB002AFF860B9603B60134698
:103E6800FB8000237B61FB6893F84130DBB2202B99
:103E780075D1BB68002B02D0FB88002B01D1012330
:103E88006EE0FB6800225A64FB68212283F8412017
:103E9800FDF74CFF7861FB68FA889A84FB68FA881A
:103EA800DA84FB689B68B3F5805F08D1FB681B69FF
:103EB800002B04D10023FB61BB68BB6103E0BB6836
:103EC800FB610023BB612EE03B6800937B69002205
:103ED8008021F86800F048F80346002B05D0FB68FD
:103EE800202283F8412003233AE0FB69002B0BD101
:103EF800BB691B881A46FB681B68C2F308025A6034
:103F0800BB690233BB6107E0FB691A78FB681B6871
:103F18005A60FB690133FB61FB68DB8C9BB2013B98
:103F28009AB2FB68DA84FB68DB8C9BB2002BCBD19E
:103F38003B6800937B6900224021F86800F014F880
:103F48000346002B05D0FB68202283F84120032379
:103F580006E0FB68202283F84120002300E00223CA
:103F680018462037BD4680BD80B586B000AFF860E2
:103F7800B9603B601346FB713BE03B6AB3F1FF3F1E
:103F880037D0FDF7D3FE02463B68D31A3A6A9A4205
:103F980002D33B6A002B01D103233AE0FB681B687C
:103FA800DB6803F00403002B23D0BB68802B20D0F0
:103FB800BB68402B1DD0FB681B681B6803F0080317
:103FC800082B16D100237B61FB681B681B687B618B
:103FD800FB681B685B687B617B69F86800F01DF80B
:103FE800FB6808225A64FB68002283F840200123FA
:103FF8000FE0FB681B681A68BB681340BA689A42EE
:104008000CBF01230023DBB21A46FB799A42B4D0D5
:10401800002318461837BD4680BD80B495B000AF60
:1040280078607B681B680C337B637B6B53E8003FCD
:104038003B633B6B23F49073FB647B681B680C3316
:10404800FA6C3A64FB63F96B3A6C41E80023BB6392
:10405800BB6B002BE5D17B681B6814333B623B6A62
:1040680053E8003FFB61FB6923F00103BB647B68F5
:104078001B681433BA6CFA62BB62B96AFA6A41E81F
:1040880000237B627B6A002BE5D17B681B6B012BCD
:1040980019D17B681B680C33FB60FB6853E8003F51
:1040A800BB60BB6823F010037B647B681B680C3320
:1040B8007A6CBA617B617969BA6941E800233B612E
:1040C8003B69002BE5D17B68202283F842207B687E
:1040D80000221A6300BF5437BD4680BC70470000F9
:1040E80080B584B000AF78607B681B681B6923F4D7
:1040F80040517B68DA687B681B680A431A617B68F1
:104108009A687B681B691A437B685B691343BB60C9
:104118007B681B68DB6823F4B05323F00C037A68D0
:104128001268B9680B43D3607B681B685B6923F42A
:1041380040717B689A697B681B680A435A617B688F
:104148001B682C4A934203D1FEF7B6FCF86002E0E4
:10415800FEF79EFCF860FA6813469B0013449A0029
:104168001A447B685B689B00B2FBF3F3224AA2FB0C
:1041780003235B091901FA6813469B0013449A004C
:104188001A447B685B689B00B2FBF3F21A4BA3FBF3
:1041980002035B09642000FB03F3D31A1B013233CB
:1041A800154AA2FB03235B0903F0F0031944FA68DC
:1041B80013469B0013449A001A447B685B689B0073
:1041C800B2FBF3F20C4BA3FB02035B09642000FB78
:1041D80003F3D31A1B013233074AA2FB03235B09FB
:1041E80003F00F027B681B680A449A6000BF10370F
:1041F800BD4680BD003801401F85EB51002B2DE9DD
:10420800F0471D46BBBF03F100431D4600232D2385
:1042180088B01446B8BF1446129A109E1370149BA7
:10422800DDF84CA023F02008B8F1460F05D0B8F10E
:10423800450F00D10136022300E0032307AA0492A8
:1042480006AACDE902A2CDE9003622462B4600F0A7
:104258005FFEB8F1470F074619D1119BDB070ED552
:1042680000EB06090022002320462946FCF704FC3F
:1042780008B1CDF81C903022079B4B451ED3384619
:10428800079B159ADB1B136008B0BDE8F087B8F1EF
:10429800460F00EB0609E5D10378302B0AD100223E
:1042A800002320462946FCF7E7FB18B9C6F10106AA
:1042B800CAF80060DAF800309944D3E7591C07912E
:1042C8001A70D9E7F7B50029B6BF2D232B23494229
:1042D80009290270437029DD0DF107031D460A27DD
:1042E800B1FBF7F61A4607FB1614303402F8014CF6
:1042F8000C46632C314603F1FF33F1DC3031941E58
:1043080003F8011C2346411CAB420AD30DF10903F3
:104318009B1AAC4288BF002302330344181A03B027
:10432800F0BD13F8016B01F8016FEDE73023303170
:104338008370C170031DF1E72DE9F04F91B00C4671
:10434800DDF8688016461F46054600F0D3FC036872
:1043580018460893FBF764FF00230E93D8F8003043
:104368000990073323F0070303F1080294F818A013
:10437800D4F800B0C8F80020D3E9008929F0004338
:104388000B93CDF828804FF0FF32DDE90A01C4E92C
:1043980012899C4BFCF7A2FB70BBDDE90A014FF0C8
:1043A800FF32984BFCF77CFB30BB002200234046D1
:1043B8004946FCF76BFB10B12D2384F84330924A31
:1043C800924BBAF1470F94BF9046984603234FF09B
:1043D800000923612BF00403236033462146284655
:1043E80000970FAA00F0D4F9013040F090804FF008
:1043F800FF3011B0BDE8F08F42464B464046494673
:10440800FCF76CFB48B14B46002BB8BF2D23804A04
:10441800B8BF84F843307F4BD3E763680AF0DF0105
:104428005A1C3FD10623636000224BF4806323604B
:1044380006920EAACDE904A20DAA03920DF1330249
:10444800CDE9013263684246009328464B460A91FB
:10445800FFF7D4FE0A99804647290D9928D1C81C30
:1044680002DB6368994240DDAAF1020A5FFA8AFA20
:104478005246013904F150000D91FFF723FF0E9ABF
:1044880081461318012A236102DC2268D20701D56C
:10449800013323619DF83330002B9ED02D2384F8FF
:1044A80043309AE74729BFD1002BBDD10123BAE792
:1044B800BAF1650FDCD9BAF1660F18D10029636823
:1044C8000BDD216113B92268D00702D501330B44F3
:1044D80023614FF00009A165DCE713B92268D20710
:1044E80001D50233F4E70123F2E74FF0670A0E9B88
:1044F800994205DB23682161D807EAD54B1CE7E719
:104508000029CCBF0122C1F102021344E0E723686D
:104518005A0507D42369424631462846B847013030
:104528002BD164E7BAF1650F40F2DC80D4E91201BF
:1045380000220023FCF7A0FA002833D001233146DB
:104548002846354AB84701303FF451AFDDE90D3808
:10455800434502DB2368D8070FD5DDE90823314638
:104568002846B84701303FF442AF4FF0000908F140
:10457800FF3804F11A0AC84509DC23689B0700F1D3
:104588000281E0680F9B9842B8BF184631E70123C3
:10459800524631462846B84701303FF428AF09F162
:1045A8000109E8E70D9B002B38DC0123314628463A
:1045B800194AB84701303FF41AAFDDE90D3959EA15
:1045C800030302D12368D907D7D5DDE9082331468B
:1045D8002846B84701303FF40AAF4FF0000A04F10B
:1045E8001A0B0D9B5B42534501DC4B4693E70123B5
:1045F8005A4631462846B84701303FF4F8AE0AF12A
:10460800010AEEE7FFFFEF7F926B0008966B000848
:104618009A6B00089E6B0008A26B0008A36DDDF87A
:1046280038A05345A8BF5346002B994636DC4FF0B7
:10463800000B29EAE97904F11A02A36D0A93A3EBA6
:1046480009035B4531DC0D9B9A453ADC2368DA07A0
:1046580037D40D9BAAEB03090A9BAAEB03039945E0
:10466800A8BF9946B9F1000F33DC4FF0000829EADA
:10467800E97904F11A0B0D9BAAEB0303A3EB0903D9
:1046880043457FF77AAF01235A4631462846B84753
:1046980001303FF4ACAE08F10108ECE74246314680
:1046A8002846B8470130C2D1A1E601233146284641
:1046B8000A92B84701303FF49AAE0A9A0BF1010BFF
:1046C800BBE73146DDE908232846B8470130C0D1A9
:1046D8008DE60A9A4B46314628464244B84701308F
:1046E800C3D184E6DDF838A0BAF1010F01DCDB079D
:1046F80036D50123424631462846B84701303FF4B3
:1047080076AEDDE9082331462846B84701303FF444
:104718006EAED4E91201002200230AF1FF3AFCF739
:10472800ABF9C0B9534608F1010231462846B847EB
:1047380001300CD15BE601235A4631462846B8477A
:1047480001303FF454AE08F10108D045F3DB4B4685
:1047580004F15002E0E64FF0000804F11A0BF4E708
:1047680001234246E1E701234A4631462846B84735
:1047780001303FF43CAE08F10108E3680F995B1A79
:104788004345F0DCFDE64FF0000804F11909F4E7B1
:104798002DE9F047164698468A680B690746934202
:1047A800B8BF1346336091F843200C46DDF82090DB
:1047B8000AB1013333602368990642BF3368023374
:1047C8003360256815F0060506D104F1190AE36877
:1047D80032689B1AAB422BDC94F843302268003BCA
:1047E80018BF0123920630D44146384604F14302EB
:1047F800C847013023D02368226903F00603042B3D
:1048080014BF002533684FF0000608BFE56804F1BF
:104818001A0408BFED1A54F8123C08BF25EAE575DA
:104828009342C4BF9B1AED18B5421AD1002008E084
:104838000123524641463846C847013003D14FF05C
:10484800FF30BDE8F0870135C1E73020E11881F875
:1048580043005A1C94F845102244023382F843104E
:10486800C2E70123224641463846C8470130E6D010
:104878000136D9E72DE9FF470F7E9146782F80460C
:104888000C469A460C9E01F1430207D8622F0AD8BB
:10489800002F00F0D380582F00F0BA8004F14206B0
:1048A80084F842703AE0A7F16303152BF6D801A10A
:1048B80051F823F01549000829490008A5480008BF
:1048C800A5480008A5480008A54800082949000887
:1048D800A5480008A5480008A5480008A5480008FC
:1048E8002B4A000853490008E5490008A548000874
:1048F800A54800084D4A0008A54800085349000883
:10490800A5480008A5480008ED49000833681A1DA5
:104918001B68326004F1420684F8423001239EE0AD
:1049280033682068191D3160060601D51D6803E04B
:104938004506FBD5B3F90050002D03DA2D236D424F
:1049480084F843300A23594811E02168336808067F
:1049580053F8045B02D4490648BFADB26F2F3360E9
:1049680014BF0A2308235148002184F843106668BD
:10497800002EA8BF2168A660A4BF21F00401216011
:104988000DB9002E4BD01646B5FBF3F103FB1157BA
:10499800C75D06F8017D2F46BB420D46F4D9082BAA
:1049A8000BD12368DF0708D5236961689942DEBF08
:1049B800302306F8013C06F1FF36921B22614B4674
:1049C80021464046CDF800A003AAFFF7E1FE0130DA
:1049D8004AD14FF0FF3004B0BDE8F087236843F0B8
:1049E800200323607827324884F8457023683168AB
:1049F8001F0651F8045B02D45F0648BFADB23160B0
:104A0800D90744BF43F0200323601DB11023ABE74F
:104A18002648E9E7236823F020032360F6E71646D3
:104A2800BDE733682568181D616930602E061B686C
:104A380001D5196002E06806FBD5198000231646E7
:104A48002361BCE7336800211A1D32601E68626862
:104A5800304600F0C6F908B1801B606063682361C6
:104A6800002384F84330AAE7324649464046236982
:104A7800D0470130ADD023689B0713D4E068039B6F
:104A88009842B8BF1846A6E7012332464946404631
:104A9800D04701309DD00135E36803995B1AAB42DA
:104AA800F2DCEBE7002504F11906F5E7A46B000832
:104AB800B56B0008002310B50446C0E90033C0E90F
:104AC8000433836081814366C28183611946082269
:104AD8005C3000F006F90D4B246263620C4BA36254
:104AE8000C4BE3620C4B23630C4B9C4206D003F146
:104AF8006802944202D0D0339C4205D104F1580098
:104B0800BDE8104000F06AB910BD00BF654C000850
:104B1800874C0008BF4C0008E34C000874030020D1
:104B2800024A0349034800F069B800BF0C0000209E
:104B3800256700081C00002041680C4B10B59942FD
:104B4800044601D001F0EAFDA168094B994202D060
:104B5800204601F0E3FDE168064B994204D0204667
:104B6800BDE8104001F0DABD10BD00BF740300209D
:104B7800DC0300204404002010B50B4B0B4C0C4AFE
:104B880020461A6004210022FFF794FF04F1680010
:104B980001220921FFF78EFF04F1D0000222BDE8AF
:104BA80010401221FFF786BFAC04002074030020D8
:104BB800294B0008014800F012B900BFB5040020D5
:104BC800014800F00DB900BFB504002010B5044637
:104BD800FFF7F0FF236A1BB1BDE81040FFF7F0BFF5
:104BE800044B2362044B1B68002BF5D1FFF7C4FF6D
:104BF800F2E700BF414B0008AC0400202DE9F84360
:104C08000746884614460026D4E90195B9F10109FA
:104C180005D52468002CF7D13046BDE8F883AB8968
:104C2800012B07D9B5F90E30013303D02946384690
:104C3800C04706436835E9E70FB407B5064904AB32
:104C4800086853F8042B8168019301F0CFFB03B087
:104C58005DF804EB04B070471800002010B50C464E
:104C6800B1F90E1000F06CF80028ABBF636DA38992
:104C78001B1823F48053ACBF6365A38110BD2DE9D5
:104C8800F0411F468B890546DB050C46164605D5BF
:104C980002230022B1F90E1000F040F8A389324631
:104CA80023F48053A38128463B46B4F90E10BDE88F
:104CB800F04100F057B810B50C46B1F90E1000F0ED
:104CC8002DF8431CA38915BF606523F4805343F472
:104CD8008053A38118BFA38110BDB1F90E1000F055
:104CE8000DB803460244934200D1704703F8011BF4
:104CF800F9E70000004870475801002038B5002344
:104D0800054D044608462B60FCF725FF431C02D1DD
:104D18002B6803B1236038BDB004002038B50446C1
:104D2800084611460022054D2A601A46FCF737FF4F
:104D3800431C02D12B6803B1236038BDB0040020A6
:104D480038B50446084611460022054D2A601A4621
:104D5800FCF7E4FE431C02D12B6803B1236038BD85
:104D6800B004002038B50446084611460022054D17
:104D78002A601A46FCF74EF9431C02D12B6803B18E
:104D8800236038BDB0040020014B1868704700BF8D
:104D98001800002070B500260C4D0D4C641BA410A3
:104DA800A64209D101F0C8FE00260A4D0A4C641B30
:104DB800A410A64205D170BD55F8043B98470136AA
:104DC800EEE755F8043B98470136F2E7086F00080C
:104DD800086F0008086F00080C6F000870477047DC
:104DE8007047034610B5C9B202449342184601D130
:104DF800002003E0047801338C42F6D110BD2DE980
:104E0800F74F03690C690746A3427EDB013CA30008
:104E180000F1140501F11408009305EB84030193D4
:104E280058F8243055F8242001339A42B2FBF3F69F
:104E380008EB84092ED34FF0000AC446AE46D34689
:104E48005CF8043B98B206FB00A01B0C020C06FBA6
:104E58000323DEF8002080B292B2121A5A44DEF818
:104E680000004FEA134A9BB2C3EB224303EB104303
:104E780092B242EA0342E1454FEA234B4EF8042B33
:104E8800DED2009BEB582BB9019B043B9D421A468E
:104E98002FD33C61384601F079F9002825DB2946F3
:104EA800002058F8042BD1F800C01FFA82FE1FFA20
:104EB8008CF3A3EB0E030344120CC2EB234202EB68
:104EC8001C429BB243EA0243C1454FEA224041F8E3
:104ED800043BE6D255F8242005EB840322B9043BB1
:104EE8009D421A460BD33C610136304603B0BDE8FB
:104EF800F08F1268043B002ACBD1013CC6E7126848
:104F0800043B002AEFD1013CEAE70020EEE700006D
:104F18002DE9F04F14461D46C76997B08346CDE981
:104F28000245239E7FB9102000F002FE0246CBF80E
:104F38001C0020B9EF21A84BA84801F0C9FCC0E922
:104F480001770760C760DBF81C30196859B15A68E7
:104F5800012393404A608B60584600F0DFFE002230
:104F6800DBF81C301A602B1EAFBF0023012223F090
:104F780000430393A8BF3360DDF80C80984BB8BF9B
:104F8800326033EA080312D142F20F73229A136097
:104F9800C8F31303234300F05085249BDFF844A291
:104FA800002B00F052850AF1030300F04CBDDDE947
:104FB8000223CDE90C23DDE90C0100220023FBF7D5
:104FC8005BFD074658B10123229A1360249B13B155
:104FD800854B249A1360DFF814A200F036BD14AB99
:104FE800019315AB00935846DDE90C2301F07EF9D7
:104FF800C8F30A568146002E77D0DDE90C010D9BD7
:10500800A6F2FF36C3F3130343F07F5343F4401370
:10501800129719460022764BFBF70EF968A3D3E9DD
:105028000023FBF7C1FA68A3D3E90023FBF706F9CD
:10503800044630460D46FBF74DFA65A3D3E9002335
:10504800FBF7B2FA02460B4620462946FBF7F6F86C
:1050580004460D46FBF758FD00220746002320466C
:105068002946FBF713FD40B13846FBF733FA2246D1
:105078002B46FBF701FD00B9013F162F53D8DDE998
:105088000C015C4B03EBC703D3E90023FBF7FEFCE1
:1050980000284AD00023013F0F93149B9B1B5A1EE4
:1050A80046BFC3F1010800234FF00008099248BF2A
:1050B8000993002F3BDB099B0E973B440993002380
:1050C8000A93209B092B66D8052BC4BF043B209369
:1050D800209BC8BF0024A3F10203D8BF0124032BDF
:1050E80064D8DFE803F02B383656DDE914631E4434
:1050F80006F23243202BC1BFC3F1400308FA03F87C
:1051080006F2124324FA03F3D6BFC3F1200348EA98
:10511800030004FA03F0FBF7CDF90122A1F1F873BB
:10512800013E129275E70123B6E70F90B5E77B427F
:105138000A930023A8EB07080E93C2E700230B93FA
:10514800219B002B35DC01231A46CDE90733219238
:105158000BE00123F3E700230B93219BFB18089333
:105168000133012B0793B8BF012300210422DBF888
:105178001C0002F114059D421FD94160584600F0F9
:105188008DFD8246002839D1024640F2AF111A4BF4
:10519800D2E60123E0E7012400230B9420934FF08B
:1051A800FF330022CDE907331223D0E701230B9305
:1051B800F5E7219BCDE90733D7E701315200D8E75E
:1051C80061436F63A787D23FB3C8608B288AC63F05
:1051D800FB799F501344D33FD36B0008EA6B000858
:1051E8000000F07FCF6B0008A36B0008A26B0008DB
:1051F8000000F83FE06C0008426C0008DBF81C3047
:105208001860079B0E2B00F2A480002C00F0A180F0
:10521800002F33DD864B07F00F0203EBC203F805BE
:10522800D3E90034CDE904344FEA271416D5DDE973
:105238000C01804B0326D3E90823FBF7DFFACDE9FD
:10524800020104F00F047B4D54B9DDE90423DDE9C4
:105258000201FBF7D3FACDE9020128E00226F2E7C2
:10526800E10708D5DDE90401D5E90023FBF79CF93E
:10527800CDE90401013664100835E5E700F0D28075
:10528800DDE90C017C426A4B04F00F0203EBC20318
:10529800D3E90023FBF788F902260023CDE90201B0
:1052A800644D2411002C40F0B280002BD3D1DDE9ED
:1052B80002450F9B002B00F0B780002220462946AC
:1052C8005D4BFBF7E3FB002800F0AE80079B002B4B
:1052D80000F0AA80089B002B37DD7B1E2046049334
:1052E80000222946554BFBF75FF9CDE90201089CDE
:1052F80001363046FBF7EEF8DDE90223FBF754F9F7
:1053080000224F4BFAF79AFF0546A1F15076002C80
:1053180040F09A80DDE9020100224A4BFAF78CFF3F
:1053280002460B46CDE902232A463346FBF7CCFB5F
:10533800002840F08E82DDE902012A4606F100438A
:10534800FBF7A4FB002840F02781DDE90C34CDE908
:105358000234159B002BC0F263810E2F00F360818D
:10536800334B03EBC703D3E90034CDE90434219B65
:10537800002B03DA079B002B40F30081DDE902458F
:105388005646DDE9042320462946FBF737FAFBF7A2
:10539800BBFB8046FBF79EF8DDE90423FBF704F925
:1053A80002460B4620462946FAF746FF08F1300424
:1053B800079D06F8014BA6EB0A04A54202460B46D8
:1053C80040F01681FAF73AFFDDE9042304460D465A
:1053D800FBF77AFB002840F0F880DDE9042320463B
:1053E8002946FBF749FB18B118F0010F40F0ED8092
:1053F8004946584600F092FC00233370229B01373F
:105408001F60249B002B00F020831E601DE3E20731
:1054180005D5D5E90023FBF7C7F801230136641049
:1054280008353FE7022642E7079C049761E700BF7B
:10543800E06C0008B86C00080000F03F0000244051
:1054480000001C4000001440704B0B9903EBC40390
:1054580053E902235444002945D000206C49FBF746
:10546800CDF933462A46FAF7E7FE5646CDE910014C
:10547800DDE90201FBF748FB0546FBF72BF802467E
:105488000B46DDE90201FAF7D7FE02460B46303536
:10549800CDE90223DDE9102306F8015BFBF7F6FAF4
:1054A800002863D1DDE9022300205A49FAF7C4FE37
:1054B800DDE91023FBF7EAFA002840F08780A642CE
:1054C8003FF443AFDDE910010022534BFBF76CF8C2
:1054D8000022CDE91001DDE902014F4BFBF764F82A
:1054E800CDE90201C4E731462846FBF75DF8564688
:1054F800CDE910011394DDE90201FBF705FB054630
:10550800FAF7E8FF02460B46DDE90201FAF794FED6
:1055180002460B46303506F8015BA642CDE9022368
:105528004FF0000224D1DDE91001394BFAF786FE6D
:1055380002460B46DDE90201FBF7C6FA002845D111
:10554800DDE9102300203249FAF776FE02460B46C1
:10555800DDE90201FBF79AFA00283FF4F6AE139E44
:10556800731E139316F8013C302BF8D0049F3FE7C5
:10557800294BFBF719F8CDE90201BCE70CD1DDE9AD
:1055880004010022254BFBF70FF8DDE90223FBF7A6
:1055980091FA002800F05B8100242546219B56469D
:1055A800DB43049300272146584600F0B7FB002D43
:1055B800DCD02FB1AF4203D03946584600F0AEFBDD
:1055C8002946584600F0AAFBD0E7049733461E4602
:1055D80013F8012D392A07D19A45F8D1049A0132D6
:1055E800049230228AF800201A7801321A70BDE736
:1055F8000022094BFAF7D8FF0022002304460D4683
:10560800FBF73AFA00283FF4BCAEF1E6E06C00087C
:105618000000E03F0000F03F00002440000014407C
:105628000B9A002A00F0DB80209A012A00F3BF8041
:10563800129A002A00F0B78003F2334346460A9CC8
:10564800099A01211A4458469844099200F01AFC14
:1056580005465EB1099B002B08DDB342A8BF33465F
:10566800099AA8EB0308F61AD31A09930A9BF3B10F
:105678000B9B002B00F0B7808CB129462246584678
:1056880000F0BEFC4A4601460546584600F010FCAC
:1056980049460490584600F041FB049B99460A9BF2
:1056A8001A1B04D04946584600F0AAFC814601213D
:1056B800584600F0E7FB0E9B0446002B00F0C9811A
:1056C8001A460146584600F09BFC209B0446012BD5
:1056D80000F38F80029B002B40F08780039BC3F36D
:1056E8001303002B40F08380039B23F000431B0D22
:1056F8001B052BB1099B08F101080133099301230C
:105708000A930E9B002B00F0AA81236904EB830304
:10571800186900F06BFBC0F12000099B184410F0D9
:105728001F0071D0C0F12003042B65DD099BC0F177
:105738001C000344804406440993B8F1000F05DDBA
:1057480049464246584600F0B5FC8146099B002B65
:1057580005DD21461A46584600F0ACFC04460F9B6E
:10576800002B53D02146484600F010FD00284DDAA2
:105778007B1E494604930A220023584600F0F0FA9B
:105788000B9B8146002B00F06C81002329460A22DE
:10579800584600F0E5FA089B0546002B61DC209B83
:1057A800022B3BDC5DE0149BC3F1360346E7079B05
:1057B8005C1E0A9BA342BFBF0A9B0E9AE31AD2182B
:1057C800A8BF1C1B079BBEBF0A940E920024002B87
:1057D800B5BFA8EB030646460023079B30E74646BD
:1057E8000A9C0B9D35E70A9A5CE7002388E7029B31
:1057F80086E700230A9388E79FD0099A1C331A4446
:1058080098441E44099298E70346F6E7079B0497D5
:10581800002B20DC0893209B022B1EDD089B002B0D
:105828007FF4BCAE21460522584600F099FA01469D
:105838000446484600F0AAFC00287FF7AFAE3123A3
:10584800564606F8013B049B01330493AAE6079CDD
:1058580004972546F3E7079B08930B9B002B00F062
:105868000481002E05DD29463246584600F022FC08
:1058780005460A9B002B5AD05846696800F00EFA74
:10588800064628B9024640F2EF21834BFFF754BB86
:105898002A6905F10C01023292000C3001F00AF875
:1058A80001223146584600F005FC2F4605460AF10C
:1058B80001030793089B53440B93029B03F00103D6
:1058C8000A93079B2146013B48460293FFF797FA44
:1058D8003946089000F13008484600F057FC2A463F
:1058E80009902146584600F06DFCC268064602BB86
:1058F8000146484600F04AFC0246314658460C929A
:1059080000F00CFA209B0C9A079E43EA02010A9BBE
:10591800194310D1B8F1390F29D0099B002B02DDAA
:10592800089B03F13108029B83F800803BE6284678
:10593800BBE70122E1E7099B002B04DB20990B431D
:105948000A990B4320D1002AEDDD49460122584629
:1059580000F0B0FB2146814600F018FC002803DC6B
:10596800E1D118F0010FDED0B8F1390FD8D13923C1
:10597800029A137033461E4616F8012C013B392A49
:1059880052D001321A700EE6002A07DDB8F1390F3D
:10599800EDD0029A08F10103137004E6079B079AF9
:1059A80003F8018C0B9B934228D0494600230A2216
:1059B800584600F0D5F9AF4281464FF000034FF04A
:1059C8000A023946584607D100F0CAF90746054683
:1059D800079B0133079374E700F0C2F9294607468D
:1059E80000230A22584600F0BBF90546F0E7089B59
:1059F8000027002BCCBF1E460126564449460122EB
:105A0800584600F057FB2146814600F0BFFB0028AE
:105A1800B0DC02D118F0010FACD133461E4613F8A2
:105A2800012D302AFAD0BEE59A45A4D1049B013352
:105A3800049331238AF80030B5E5249BDFF85CA095
:105A48001BB10AF10803249A1360504617B0BDE849
:105A5800F08F209B012B7FF73DAE0E9B0A93012010
:105A68005BE6089B002B7FF7D6AE56462146484694
:105A7800FFF7C5F900F13008089B06F8018BA6EB83
:105A88000A029342B3DD494600230A22584600F031
:105A980067F98146EAE700BF426C0008C66B000858
:105AA80038B50546002940D051F8043C0C1F002B9E
:105AB800B8BFE41800F0E6F81C4A136833B963600D
:105AC80014602846BDE8384000F0E2B8A34208D97F
